S017000046756C6C5F62696E2F70726F6772616D2E7331398B
S3150000000000000000000000000000000000000000EA
S3150000001000000000000000000000000000000000DA
S3150000002000000000000000000000000000000000CA
S3150000003000000000000000000000000000000000BA
S3150000004000000000000000000000000000000000AA
S31500000050000000000000000000000000000000009A
S31500000060000000000000000000000000000000008A
S31500000070000000000000000000000000000000007A
S31500000080000000000000000000000000000000006A
S31500000090000000000000000000000000000000005A
S315000000A0000000000000000000000000000000004A
S315000000B0000000000000000000000000000000003A
S315000000C0000000000000000000000000000000002A
S315000000D0000000000000000000000000000000001A
S315000000E0000000000000000000000000000000000A
S315000000F000000000000000000000000000000000FA
S3150000010000000000000000000000000000000000E9
S3150000011000000000000000000000000000000000D9
S3150000012000000000000000000000000000000000C9
S3150000013000000000000000000000000000000000B9
S3150000014000000000000000000000000000000000A9
S315000001500000000000000000000000000000000099
S315000001600000000000000000000000000000000089
S315000001700000000000000000000000000000000079
S315000001800000000000000000000000000000000069
S3150800000000000220DD000008A9000008AD00000875
S31508000010B1000008B5000008B9000008000000009B
S31508000020000000000000000000000000BD000008FD
S31508000030C100000800000000C5000008C90000084B
S31508000040CD000008D1000008D5000008D900000836
S3150800005008B500F027F8FCE708B500F021F8FCE73A
S3150800006000B5002483B0012509490A4823468022A1
S31508000070CDE9005401F02CFA0749084823468022A6
S31508000080CDE9005401F024FA01F046FCFEE700BF72
S31508000090F83B000851000008003C00085900000819
S315080000A00020704700207047FEE700BFFEE700BF4C
S315080000B0FEE700BFFEE700BFFEE700BFFEE700BFA2
S315080000C0FEE700BFFEE700BFFEE700BFFEE700BF92
S315080000D0FEE700BFFEE700BFFEE700BF0D480E4A79
S315080000E0904208B507D2013A121A22F003020B49C8
S315080000F0043200F019F80A480A4A904207D2013A2F
S31508000100121A22F003020432002100F019F8FFF750
S31508000110A7FFFEE70000002008000020103C0008AA
S315080001200800002014F1012042B1431E01EB020C25
S3150800013011F8012B03F8012F6145F9D1704700BF6B
S3150800014010B5044612B1C9B2FFF7FAFF204610BD32
S31508000150FEE700BFFEE700BF4FF0FF30704700BF65
S31508000160104670474FF0FF30704700BF4FF40053FA
S315080001704B600020704700BF012070470020704781
S3150800018000207047012070474FF0FF30704700BFCE
S3150800019070B50446806D266D20B925684DB30136C5
S315080001A0266570BD154602467DB96068FFF7BCFF37
S315080001B06368A26D1344A2686360934224BF2368F0
S315080001C0636001362846266570BDE068FFF7ACFF18
S315080001D0A26DE36851429B1A2268E360934202D2F9
S315080001E0A3680B44E360022D08D00136002026657B
S315080001F070BDA06802F0FCF9A560D0E7012E38BFF3
S3150800020001260020CCE700BF70B5046E226D636D31
S3150800021082B09A42019003D30025284602B070BDE9
S3150800022094F85D60002201A92046FFF7B1FF76B277
S31508000230731C05460AD1236B002BEED004F130005F
S3150800024001F0EEFF002818BF0125E6E701F07EFD64
S315080002508642E2D2013676B284F85D60DDE700BFF9
S3150800026070B5054603F06AFA95F85D305CB2002C65
S315080002701BDD05F1300606E0FFF7C6FF70B9631E01
S31508000280DAB25CB28AB12B6E2846002BF4D12B6BFE
S31508000290304653B101F0C4FF0028F0D002F004F94B
S315080002A0631EDAB25CB2002AEDD1FF2385F85D3011
S315080002B003F054FA03F042FA95F85C305CB2002C6D
S315080002C014DD05F1100603E0631EDAB25CB26AB10A
S315080002D02B69304653B101F0A3FF0028F4D002F091
S315080002E0E3F8631EDAB25CB2002AF1D1FF2385F87F
S315080002F05C30BDE8704003F031BA00BF70B5044603
S3150800030000B3406DF0B1A56DA5FB00250023A5BB84
S315080003100E4603F013FAD4E915232168256503FB75
S3150800032002F2D31A0A44A2600B44FF2284F85C2026
S315080003306160E36084F85D20B6B923691BB903F0F0
S315080003400DFA012070BD04F1100001F069FF0028C4
S31508000350F5D04FF0E0234FF08052C3F8042DBFF3D9
S315080003604F8FBFF36F8FEAE704F1100000F0C6FD68
S3150800037004F1300000F0C2FDE1E7184670BD00BF89
S3150800038080B338B51D46002B37D062B399B3012424
S3150800039083F85E40A0FB0134C5E915012A60ECB973
S315080003A003F0CCF9D5E915122C686C6002FB01F153
S315080003B08A1A21442244A9600020FF212865EA60A0
S315080003C085F85C1005F1100085F85D1000F096FDC3
S315080003D005F1300000F092FD03F0C0F900222A660C
S315080003E0284638BD704751B9012283F85E202B6034
S315080003F0C3E91501D4E7084638BD184638BD104686
S3150800040038BD00BF90F85E30012B01D00020704740
S3150800041009B103680B60106001207047F8B5F0B1A8
S31508000420A0FB01370D460446CFB901FB00F010F1D9
S31508000430690F14D8683003F0B3FA064678B180F825
S315080004405E707DB100F168033360C6E91545012188
S315080004503046FFF753FF002333663046F8BD0026C3
S315080004603046F8BD0346EFE768B3884270B50D46D7
S315080004702AD3144652B300260123C2E9150682F888
S315080004805E30126003F05AF9D4E91523216826650F
S3150800049003FB02F2D31A0B440A44E360FF2384F8F1
S315080004A05C30A260616084F85D3004F1100000F0F1
S315080004B025FD04F1300000F021FD03F04FF9266612
S315080004C02565204670BD7047002070BD104670BD7A
S315080004D0F8B50446A0B188420E4611D3682003F049
S315080004E05FFA054668B10027C0E9154780F85E70CF
S315080004F001210060FFF702FF2F662E652846F8BD2A
S3150800050000252846F8BD00BF2DE9F04186B0002534
S31508000510CDE900230C9E044688462F4607E003F0E3
S315080005201DF92046FFF79CFE01F072FA012503F03B
S3150800053005F9226D636D9A4245D3022E61D0DDE935
S315080005400023134368D0002D39D003F007F901F0D2
S3150800055055FA03F0F3F894F85C30FF2B08BF84F8DB
S315080005605C7094F85D30FF2B08BF84F85D7003F06B
S31508000570F5F8694602A801F045FF002852D103F0B4
S31508000580DDF8226D636D9A42C9D103F0E7F8DDE91B
S31508000590002304F1100001F0E7FD2046FFF760FE96
S315080005A001F036FA0028C1D14FF0E0234FF080520F
S315080005B0C3F8042DBFF34F8FBFF36F8FB6E702A8BA
S315080005C001F014FFC1E7324641462046256DFFF784
S315080005D0DFFD236E7BB3022E1BD02046FFF714FEE9
S315080005E048B14FF0E0234FF08052C3F8042DBFF313
S315080005F04F8FBFF36F8F03F0B1F8012006B0BDE847
S31508000600F081324641462046256DFFF7C1FD236E2F
S315080006108BB1002DE1D0EEE703F0A0F8002006B07C
S31508000620BDE8F0812046FFF71BFE01F0F1F9002036
S3150800063006B0BDE8F081236B13B90028DBD0D0E7FC
S3150800064004F1300001F0ECFD0028D4D0C9E700BF62
S3150800065030B50C4683B071B30025012381F85E30AE
S315080006602160C1E9153503F069F8D4E91523216835
S31508000670616003FB02F2D31A0A440B44A260FF220C
S31508000680E360256504F1100084F85C2084F85D2099
S3150800069000F034FC04F1300000F030FC03F05EF8A2
S315080006A02566A5602560E560002200950023294699
S315080006B02046FFF729FF204603B030BD30B583B08A
S315080006C08568044601F02CFF854202D0002003B05D
S315080006D030BDE1680139E16011B1012003B030BDD8
S315080006E00091002200232046FFF70EFF0120EEE7C7
S315080006F030B5682083B003F053F9044698B1002555
S31508000700012180F85E502060C0E91515FFF7F6FD57
S315080007102566A5602560E560002200230095294628
S315080007202046FFF7F1FE204603B030BD2DE9F84319
S31508000730044690461D46EFF311874FF0000383F3F6
S315080007401188BFF36F8FBFF34F8F026D436D9A42C7
S3150800075006D3022D04D0002087F31188BDE8F8835C
S3150800076094F85D60D4F8509076B22A462046FFF792
S315080007700FFD731C11D1236EE3B1022D02D1B9F11D
S31508000780000F12D12046FFF73FFD70B1B8F1000FF8
S315080007900BD00120C8F80000DEE701F0D7FA864240
S315080007A003D2013676B284F85D60012087F311889A
S315080007B0BDE8F883236B002BF7D004F1300001F075
S315080007C02FFD0028E2D1F0E7F8B5EFF311864FF0D8
S315080007D0000383F31188BFF36F8FBFF34F8F036D49
S315080007E0426D9A4211D990F85D200133FF2A0446DA
S315080007F0036557B20DD1036E0D46B3B1FFF704FD7D
S3150800080078B175B10120286000E0002086F31188D0
S31508000810F8BD01F09BFA874203D201377FB284F80C
S315080008205D70012086F31188F8BD036B002BF8D0A4
S31508000830303001F0F5FC0028E3D1F2E72DE9F0416C
S31508000840044686B0CDE90023884602F077FF266D78
S3150800085000252F46002E42D1DDE90023134366D03A
S31508000860002D60D002F07AFF01F0C8F802F066FFAA
S3150800087094F85C30FF2B08BF84F85C7094F85D3000
S31508000880FF2B08BF84F85D7002F068FF694602A86E
S3150800089001F0B8FD002839D102F050FF236D002B76
S315080008A04BD102F05BFFDDE9002304F1300001F0D3
S315080008B05BFC2046FFF7D4FC01F0AAF848B94FF0D4
S315080008C0E0234FF08052C3F8042DBFF34F8FBFF3D8
S315080008D06F8F012502F032FF266D002EBCD0A26D67
S315080008E052B1E168A36811449942E16024BF2168C6
S315080008F0E1604046FFF718FC2369013E26652BBBDD
S3150800090002F02CFF012006B0BDE8F0812046FFF773
S31508000910A7FC01F07DF802F011FF236D3BB102F050
S315080009201DFF0125D6E702A801F060FD9AE702F04F
S3150800093015FF002006B0BDE8F08102F00FFF204643
S31508000940FFF78EFC012501F063F8C3E704F11000F8
S3150800095001F066FC0028D3D04FF0E0234FF0805218
S31508000960C3F8042DBFF34F8FBFF36F8FC8E700BFDF
S315080009702DE9F041044686B0CDE9002302F0DEFEFB
S31508000980256D00273E46B846002D45D1DDE90023F2
S3150800099013437CD0002E5BD002F0E0FE01F02EF867
S315080009A002F0CCFE94F85C30FF2B08BF84F85C801C
S315080009B094F85D30FF2B08BF84F85D8002F0CEFE08
S315080009C0694602A801F01EFD002834D102F0B6FEE1
S315080009D0236D002B40D102F0C1FE2368002B5DD0A9
S315080009E0DDE9002304F1300001F0BEFB2046FFF7E5
S315080009F037FC01F00DF848B94FF0E0234FF080526C
S31508000A00C3F8042DBFF34F8FBFF36F8F012602F093
S31508000A1095FE256D002DB9D02368013D2565002B6F
S31508000A2056D02369002B42D102F098FE012738469A
S31508000A3006B0BDE8F0812046FFF712FC00F0E8FF9B
S31508000A4002F07CFE236D83B102F088FE0126DEE704
S31508000A5002A801F0CBFC9FE702F080FE2046FFF7D4
S31508000A60FFFB012600F0D4FFD1E702F077FE1FB99D
S31508000A70384606B0BDE8F08102F060FE216B19B178
S31508000A80236C1968C1F10501A06801F0EBFD02F0BD
S31508000A9065FE0027384606B0BDE8F08102F04EFE36
S31508000AA0A06801F05BFD074602F058FE98E704F1DE
S31508000AB0100001F0B5FB0028B6D04FF0E0234FF048
S31508000AC08052C3F8042DBFF34F8FBFF36F8FABE788
S31508000AD001F01CFEA060A4E7F8B587680446164630
S31508000AE01D4601F01DFD874209D032462B46204699
S31508000AF0FFF73EFF10B1E3680133E360F8BDE36832
S31508000B0001200344E360F8BDF0B5044687B0CDE99B
S31508000B1000230F4602F012FE236D00252E46002BF9
S31508000B2042D1DDE90023134364D0002D5ED002F0E4
S31508000B3015FE00F063FF02F001FE94F85C30FF2B0F
S31508000B4008BF84F85C6094F85D30FF2B08BF84F812
S31508000B505D6002F003FE694602A801F053FC002816
S31508000B6037D102F0EBFD236D002B48D102F0F6FDDC
S31508000B70DDE9002304F1300001F0F6FA2046FFF71C
S31508000B806FFB00F045FF48B94FF0E0234FF0805265
S31508000B90C3F8042DBFF34F8FBFF36F8F012502F003
S31508000BA0CDFD236D002BBCD0A26DE5684AB1A368C4
S31508000BB0A9189942E16024BF2168E1603846FFF729
S31508000BC0B3FA236BE5601BBB02F0C8FD012007B032
S31508000BD0F0BD2046FFF744FB00F01AFF02F0AEFD19
S31508000BE0236D3BB102F0BAFD0125D8E702A801F052
S31508000BF0FDFB9CE702F0B2FD002007B0F0BD02F055
S31508000C00ADFD2046FFF72CFB012500F001FFC6E7E6
S31508000C1004F1300001F004FB0028D5D04FF0E023A2
S31508000C204FF08052C3F8042DBFF34F8FBFF36F8F79
S31508000C30CAE700BF2DE9F0410446EFF311874FF0EC
S31508000C40000383F31188BFF36F8FBFF34F8F056DD2
S31508000C5025B9284687F31188BDE8F08190F85C80AD
S31508000C601646826D4FFA88F852B10846E168A368BD
S31508000C7011449942E16024BF2168E160FFF754FA04
S31508000C80013DB8F1FF3F256506D123697BB90120EF
S31508000C9087F31188BDE8F08101F058F88045F6D24F
S31508000CA008F101084FFA88F884F85C80EFE704F148
S31508000CB0100001F0B5FA0028E9D0002EE7D001208F
S31508000CC03060C7E770B50446EFF311854FF00002B0
S31508000CD082F31188BFF36F8FBFF34F8F006D10B982
S31508000CE085F3118870BDA26DE66852B1A0680B46FF
S31508000CF0B1188142E16024BF2168E1601846FFF718
S31508000D0013FAE660012085F3118870BD10B5044614
S31508000D1082B002F013FD206D019002F01FFD0198CC
S31508000D2002B010BD10B5044682B002F007FD236D6F
S31508000D30606DC01A019002F011FD019802B010BD55
S31508000D40006D704790F85E3003B1704702F0A4BE9C
S31508000D50806D7047406D7047006DB0FA80F04009AD
S31508000D60704700BF036D406DC01AB0FA80F04009A5
S31508000D70704700BFF0B5044683B01D461746089E67
S31508000D8002F0DCFC94F85C10FF2904BF002384F809
S31508000D905C3094F85D10FF2904BF002384F85D30A9
S31508000DA002F0DCFC216D29B1204603B0BDE8F04015
S31508000DB0FFF756BA04F1300000963A462B4601F082
S31508000DC007FA204603B0BDE8F040FFF749BA00BF6E
S31508000DD070B50446E8B1860F4FF0000514D18000BF
S31508000DE010F1690F12D8683002F0DAFD054658B1DD
S31508000DF000F1680303600423C0E9154380F85E60C8
S31508000E000121FFF77BFA2E66284670BD354628462F
S31508000E1070BD0546284670BD30B5044683B00D46FC
S31508000E2002F08CFC206E30B10020019002F096FC96
S31508000E30019803B030BD236D002BF6D1256601203D
S31508000E40F3E700BF036E8B4201D00020704710B550
S31508000E50046D82B014B1002002B010BD019002F0FA
S31508000E606DFC0198046602F079FC0120F4E700BFE6
S31508000E7010B582B0002401A90194FFF7DFFC0198A0
S31508000E8002B010BDF0B583B000230193EFF31186CD
S31508000E904FF0000383F31188BFF36F8FBFF34F8FB3
S31508000EA0056D25B986F31188019803B0F0BD90F851
S31508000EB05C70826D04467FB252B1C1688368114482
S31508000EC09942C16024BF0168C16001A8FFF72CF9E7
S31508000ED0013D7B1C256507D12369002BE2D004F16F
S31508000EE0100001F09DF9DDE700F030FFB842D9D9CE
S31508000EF001377FB284F85C70D4E700BF4FF0FF3249
S31508000F004FF0FF33C0E9022300F108020023C0E9CD
S31508000F100422C0E906334260036070470023436138
S31508000F20704700BF4368DA68CA60026810B4DC68B4
S31508000F308B600132A160D9605DF8044B486102609C
S31508000F40704700BFF0B4D1E90056B6F1FF3F08BFBD
S31508000F50B5F1FF3F13D000F108031C469B68D3E99F
S31508000F600072BD4276EB0202F7D202688B6001324C
S31508000F70D960CC60A1604861F0BC026070474469E2
S31508000F80A368F2E7426910B4D0E902135468CB604B
S31508000F908442996008BF536013685DF8044B013BAF
S31508000FA00021416118461360704700BF0368D3B13A
S31508000FB070B5046900F10805A54212D04E1E2069D5
S31508000FC0314600F1400300F1440E13F801CB11F845
S31508000FD0012F624502D12AB17345F6D1A468A5420C
S31508000FE0EDD1002070BD1846704700BF2DE9F041CD
S31508000FF0394C054602F0A2FB236801332360636877
S31508001000002B41D0D4F85031002B34D0AB6B04F10F
S315080010100806D4F854210132C4F85421D4F85821CA
S315080010209A4204EB431238BFC4F8583106EB43160C
S315080010309368591CD3682B61D8686861DF6805F125
S315080010400800B860D860EE61916002F087FBD4F8BA
S31508001050503173B16268AB6B926B9A4209D24FF00A
S31508001060E0234FF08052C3F8042DBFF34F8FBFF330
S315080010706F8FBDE8F0816268AB6B926B9A4298BF3E
S31508001080656004F10806C4E765602368012BBDD1D5
S3150800109004F10806374604F1A80838462037FFF752
S315080010A02DFFB845F9D10D4F0D48FFF727FF3846F4
S315080010B0FFF724FF07F12000FFF720FF07F14000A4
S315080010C0FFF71CFF07F16000FFF718FFC4F8488117
S315080010D0AB6BC4F84C719CE7F8E80120C0E9012025
S315080010E0A0E901202DE9F84F2B4C0646D4E958898A
S315080010F0D4F84871D4F84CA1636860689346002216
S315080011000D46083083F85620FFF73CFFB5F1FF3F40
S3150800111008BFB6F1FF3F22D018EB06066268616881
S3150800112059EB05054FF00003B046A94628BF012331
S31508001130C2E902896BB938460831FFF703FFD4E9DB
S315080011405A23964275EB030338BFC4E95A89BDE8AA
S31508001150F88F50460831BDE8F84FFFF7F3BEBBF1EC
S31508001160000FD9D0D4F82C3160686268D968036159
S3150800117051616068D4F82811DD6862680830A86093
S3150800118001316068C4F82811083204F59474DA60ED
S31508001190C461BDE8F88F00BFF8E801202DE9F843DF
S315080011A00546194C02F0CAFA6F6BD4F84881EE6905
S315080011B0D4F84C9102F0D2FA04F1E8039F4214D015
S315080011C046450FD04E450DD004F594739E420FD078
S315080011D004F58474A64215D0002E14BF01200420FD
S315080011E0BDE8F8830220BDE8F8830120BDE8F8834E
S315080011F06B6B002BF6D195F85430012B0CBF0220EF
S315080012000320EDE70420EBE7F8E801202DE9F04795
S315080012100A9C089DDDF824904FEA820A5246074642
S315080012200E46E06BA5219846FEF78AFFE26BAAF107
S31508001230040A92442AF0070A6EB1731E04F14001AB
S31508001240033613F8012F01F8012B0AB1B342F8D17E
S31508001250002384F84330042D28BF0425A56365645C
S3150800126004F10800FFF75AFE04F12000FFF756FEC6
S31508001270D5F1050563EB03032562A46124634246A1
S3150800128039465046636202F033FA2060B9F1000F1E
S3150800129001D0C9F80040BDE8F08700BF38B5154C45
S315080012A0D4F87031F3B102F049FAD4F818311D694F
S315080012B005F10800FFF766FE2368013B2360D4F8B2
S315080012C07031013BC4F8703102F048FA95F8553090
S315080012D04BB1012BE4D1284602F0DEFBD4F870317D
S315080012E0002BE0D138BDE86B02F0D6FB284602F0A9
S315080012F0D3FBD5E7F8E801205B4AD2E958012DE986
S31508001300F047441C41F1000554EA0503C2E9584573
S3150800131000F08180D2E95A01844275EB010367D354
S31508001320D2F848311868002800F08D804FF0000A7E
S31508001330DFF838E1D4464AE0D3E90469DF69C6F83C
S315080013400C90C9F808607E688E423E6808BFC7F8E8
S315080013500490013EC3F81CC03E605F6B7FB1D3E9C1
S315080013600A967868C9F80C60DE6A4045C6F808909F
S3150800137008BF7E603E68C3F834C0013E3E609F6B7E
S31508001380D2F8586102EB4719B742D9F80C80C3F86E
S315080013901080D8F80C605E61D8F80C00D9F808609F
S315080013A088BFC2F858718160C8F80C100EEB471157
S315080013B0D96101365168D2F84831C9F80860896B95
S315080013C01B688F4288BF4FF0010A002B3CD0D2F829
S315080013D048311B691B69D3E90267B44275EB0700FC
S315080013E003F1080103F12008A6D2C2E95A6701E011
S315080013F04FF0000A5168D2F87831896B02EB411236
S315080014009268022A28BF4FF0010A002B0CBF5046EB
S315080014100120BDE8F087D2F84831D2F84C11C2F85D
S315080014204811C2F84C31D2F874310133C2F874311C
S31508001430D2F848311B6873B94FF0FF304FF0FF31CF
S31508001440C2E95A0166E782464FF0FF344FF0FF358E
S31508001450C2E95A45CEE7D2F848311B69D3E90001FB
S31508001460C2E95A0156E700BFF8E8012000E9012061
S315080014702DE9F04387B00F46109C0F9D002105917A
S315080014800CB3E5B106469046204658229946FEF723
S3150800149057FEE5630E9800900225029484F855508D
S315080014A005AD4B464246394630460195FFF7AEFE36
S315080014B02046FFF79BFD059807B0BDE8F083284650
S315080014C007B0BDE8F083204607B0BDE8F08300BF4B
S315080014D02DE9F043074685B090001646884699469A
S315080014E002F05EFAE0B10446582002F059FA0546C1
S315080014F0D8B158220021FEF723FE0D98EC6301901F
S315080015000C9800904B463246414638460295FFF7FE
S315080015107DFE2846FFF76AFD012005B0BDE8F08389
S315080015204FF0FF3005B0BDE8F083204602F0B4FA6C
S315080015304FF0FF3005B0BDE8F08300BF70B5054633
S31508001540334C02F0FBF8002D51D005F10806304661
S31508001550FFF718FD6B6B1BB105F12000FFF712FDB5
S31508001560D4F8543162680133AA42C4F85431D4F825
S3150800157050312ED02368013B2360D4F848311B68CC
S31508001580A3B1D4F848311B69D3E90023C4E95A2327
S3150800159002F0E4F895F85530A3B1012B34D0D4F80D
S315080015A0503113B16368AB4223D070BD4FF0FF339F
S315080015B04FF0FF32C4E95A2302F0D0F895F85530B7
S315080015C0002BEAD1E86B02F067FA284602F064FAC3
S315080015D0E5E7002BCED00F483146FFF7A3FCD4F839
S315080015E070310133C4F8703102F0B8F8D7E765688E
S315080015F0ABE74FF0E0234FF08052C3F8042DBFF35A
S315080016004F8FBFF36F8F70BD284602F045FAC6E7C5
S31508001610F8E8012000EA0120034B5B68834200D00A
S31508001620BCE50020704700BFF8E8012010B5044665
S3150800163082B002F083F834B1A06B019002F08EF804
S31508001640019802B010BD014B5C68F5E7F8E8012087
S31508001650EFF311834FF0000282F31188BFF36F8F07
S31508001660BFF34F8F18B1806B83F311887047034A15
S315080016705068806B83F31188704700BFF8E8012033
S3150800168010B5044682B002F059F834B1606C019086
S3150800169002F064F8019802B010BD014B5C68F5E7EA
S315080016A0F8E80120EFF311834FF0000282F3118866
S315080016B0BFF36F8FBFF34F8F18B1406C83F3118858
S315080016C07047034A5068406C83F31188704700BF1F
S315080016D0F8E8012004292DE9F04128BF0421044631
S315080016E00D4602F02BF8002C38D0626C954227D0B4
S315080016F02C4F29D87E68361BB6FA86F67609A36B70
S315080017009A4201D09D4200D9A563626A6564002A9F
S3150800171005DBD5F1050562EB020225626262224D00
S31508001720E26905EB43139A421BD04EB14FF0E02312
S315080017304FF08052C3F8042DBFF34F8FBFF36F8F5E
S31508001740BDE8F04102F00AB87B68A34227D07B685F
S315080017509E6BAE422CBF00260126D0E7114B5C6873
S31508001760C3E704F108084046FFF70CFCA36BD7F85B
S315080017705821934288BFC7F8583107EB431705EB42
S315080017804315FB682361DA686261BA68D968013271
S31508001790C1F80880C3F80C80E561BA60C5E7002681
S315080017A0ADE700BFF8E8012000E90120F8B5254DAE
S315080017B06B6883420CD0044650B101F0BFFFE26962
S315080017C005F594739A4204D0BDE8F84001F0C6BF07
S315080017D0F8BD636B05F1E8029342F5D0002BF3D10F
S315080017E094F85430012BEFD004F108063046FFF781
S315080017F0C9FBA36BD5F85821934288BFC5F8583161
S3150800180005EB43116A68104D976BCA682261D06868
S315080018106061886800F1010CD06805EB4315BB428E
S315080018208660D660E561C1F808C0CDD94FF0E023DF
S315080018304FF08052C3F8042DBFF34F8FBFF36F8F5D
S31508001840C2E700BFF8E8012000E901202DE9F041D0
S31508001850EFF311874FF0000383F31188BFF36F8FFF
S31508001860BFF34F8F2A4DC26905F594739A4205D086
S31508001870002687F311883046BDE8F081D0F8348019
S31508001880044605F1E8008045F2D0B8F1000FEFD123
S3150800189094F85430012B38D0D5F87C615EBB6B6860
S315080018A0A26B9B6B9A4288BF012604F1080888BF81
S315080018B0C5F878614046FFF765FBA36BD5F8582154
S315080018C01448934288BFC5F8583105EB431500EB19
S315080018D04310EB682361DA686261AA68D968013245
S315080018E0C1F80880C3F80C80E061AA6087F3118804
S315080018F03046BDE8F08104F12001FFF713FB4646A8
S3150800190087F311883046BDE8F0814646B1E700BF47
S31508001910F8E8012000E9012070B586B0254C492376
S315080019208DF810304423002504F5C0768DF8113063
S315080019304C23582229468DF81230304645238DF817
S3150800194013300595FEF7FCFB05A904F5EC72019129
S3150800195002212B461848C4F8BC2184F8D5118022E8
S3150800196004A902960095FFF751FC3046FFF73EFBA7
S31508001970059BC4F8D833CBB101F08CFB012815D1EF
S315080019804FF0000383F31188BFF36F8FBFF34F8FB8
S315080019904FF0FF324FF0FF33C4E95A2300220023E9
S315080019A0C4F85001C4E9582301F0C6FF034B1B686D
S315080019B006B070BDF8E80120651C0008000000208C
S315080019C010B50D4C01F00AFCFFF7B8FDD4F8D803A2
S315080019D0FFF7B4FDFFF762FC4FF0000383F31188AD
S315080019E0BFF36F8FBFF34F8F0023C4F85031BDE8A4
S315080019F0104001F0A1BE00BFF8E80120034AD2F862
S31508001A007C310133C2F87C31704700BFF8E8012009
S31508001A102DE9F04F5E4C83B001F090FED4F87C318E
S31508001A20013BC4F87C31D4F87CC1BCF1000F40F00E
S31508001A3091802368002B00F08D80D4F8E830002BC5
S31508001A405CD004F1080E4FF00108D4F8F8301B6991
S31508001A505A6BD3E90A01D2F80490C16003F1200554
S31508001A60A945886008BF51601168C3F834C00139B8
S31508001A701160D3F81C90D4F858A1D9F80400D3E91A
S31508001A80041203F10805A842CA60916008BFC9F8A4
S31508001A9004209A6BD9F8001004EB42100139C9F8F2
S31508001AA00010C1685245CE685E6188BFC4F85821E7
S31508001AB0D1F80CA0D4F804908668D9F83890196142
S31508001AC0CAF808500EEB421ACD60C3F81CA0D4F829
S31508001AD0E83006F1010B4A45C0F808B088BFC4F8DB
S31508001AE07881002BB1D1D4F848311B68002B46D138
S31508001AF04FF0FF324FF0FF33C4E95A23D4E9F8898F
S31508001B0058EA090323D001250DE0FFF7F5FB08B1D4
S31508001B10C4F8785118F1FF3249F1FF33994652EA71
S31508001B20090390460FD0D4F87C31002BEDD0D4E9C8
S31508001B30F823511C43F1000300910193DDE90023CA
S31508001B40C4E9F823E6E700220023C4E9F823D4F819
S31508001B5078313BB90020009001F000FE009803B0F0
S31508001B60BDE8F08F4FF0E0234FF080526168C3F86C
S31508001B70042DBFF34F8FBFF36F8F0120EBE7D4F827
S31508001B8048311B69D3E90023C4E95A23B6E700BFE5
S31508001B90F8E80120224970B5D1F87C410134C1F832
S31508001BA07C41D1E95845D0E900168A184FF0000C57
S31508001BB07341E64628BF4FF0010C8C4275EB0601CF
S31508001BC01ED25EEA0C0126D0944275EB0301C0E9E9
S31508001BD000231ED2101B63EB05010022FFF782FAD1
S31508001BE00124FFF715FF48B94FF0E0234FF0805264
S31508001BF0C3F8042DBFF34F8FBFF36F8F204670BD18
S31508001C005EEA0C01C0E90023E4D1944275EB0301B6
S31508001C10E0D30024E5E7C0E900230024E1E700BF9C
S31508001C20F8E8012008B550EA01030AD14FF0E0238D
S31508001C304FF08052C3F8042DBFF34F8FBFF36F8F59
S31508001C4008BD074AD2F87C310133C2F87C3100223C
S31508001C50FFF748FAFFF7DCFE0028E7D008BD00BF0B
S31508001C60F8E801202DE97848254C4FF0E0264FF09A
S31508001C708055FFF713FBA368012B05D9C6F8045D49
S31508001C80BFF34F8FBFF36F8FD4F85831F3B963683A
S31508001C909B6B002BEDD1A368012BEAD8D4E95A0136
S31508001CA0D4E958BCB0EB0B0261EB0C03022A73F1C2
S31508001CB00003DED3D4F87C310133C4F87C31D4F880
S31508001CC058312BB16368FFF7A3FED2E76368D0E704
S31508001CD063689B6B002BF6D1A368012BF3D8D4E974
S31508001CE05A01D4E95823B0EB020C61EB0301BCF1AD
S31508001CF0020F71F10003E6D3604601F07FFDE2E7CB
S31508001D00F8E8012000B583B001F018FD054BD3E9CA
S31508001D105801CDE9000101F021FDDDE9000103B01C
S31508001D205DF804FBF8E80120EFF311834FF0000299
S31508001D3082F31188BFF36F8FBFF34F8F024AD2E940
S31508001D40580183F311887047F8E80120014B186899
S31508001D50704700BFF8E8012008B140307047024BD1
S31508001D6058684030704700BFF8E801202DE9F04177
S31508001D70224FD7F87C3101330646C7F87C3107F184
S31508001D80880528463146FFF711F907F10808A5F135
S31508001D902003044658B9A8450ED01D4628463146A4
S31508001DA0FFF704F9A5F1200304460028F3D0FFF74E
S31508001DB02FFE2046BDE8F081D7F848013146FFF7E7
S31508001DC0F5F804460028F2D1D7F84C013146FFF75A
S31508001DD0EDF804460028EAD109483146FFF7E6F847
S31508001DE004460028E3D131460648FFF7DFF80446E3
S31508001DF0FFF70EFE2046BDE8F08100BFF8E8012097
S31508001E0020EA012000EA0120034688B193F855002C
S31508001E10022808D0012801D000207047DB6B0B6030
S31508001E20002313607047D86B086001201360704761
S31508001E30014B5B68EAE700BFF8E80120014BD3F8DD
S31508001E40D8037047F8E80120024B03EB8000D0F86E
S31508001E50D8037047F8E801202DE9F041144CD4E97D
S31508001E605823171841EB0306D4E95A23B34208BF8F
S31508001E70BA4280460D4609D0D4E9582312EB080623
S31508001E8045EB0307C4E95867BDE8F08101F056FC45
S31508001E90D4E9F823561C43F10007C4E9F86701F0B2
S31508001EA05DFC18F1FF30804665F10005E4E700BFE8
S31508001EB0F8E8012070B50B4CD4F87C31013305469F
S31508001EC00E46C4F87C3101F039FCD4E9F8235019E0
S31508001ED046EB0301C4E9F80101F040FCBDE8704097
S31508001EE0FFF796BDF8E80120F8B5254DD5F87C3101
S31508001EF00133C5F87C316B68984204D00446FFF775
S31508001F004DF9022804D00024FFF782FD2046F8BDCB
S31508001F1004F108063046FFF735F801F00FFC636B4D
S31508001F2033B104F12000FFF72DF8012384F8563069
S31508001F3001F014FCA36BD5F85821124F934288BFC1
S31508001F40C5F858316A6805EB4311D2F838C0CA6833
S31508001F502261D0686061886800F1010ED06807EBDD
S31508001F60431786606345D660E7614FF00104C1F800
S31508001F7008E088BFC5F87841FFF74AFD2046F8BD56
S31508001F80F8E8012000E90120084BD3F87C210AB9BA
S31508001F90FFF7B2B930B4D3E9F801441C41F10005A2
S31508001FA0C3E9F845002030BC704700BFF8E80120B7
S31508001FB038B50D4638B1044601F0C0FBE564BDE806
S31508001FC0384001F0CBBB044B5C6801F0B7FBE56415
S31508001FD0BDE8384001F0C2BBF8E8012010B582B070
S31508001FE048B1044601F0AAFBE06C019001F0B6FB8B
S31508001FF0019802B010BD014B5C68F3E7F8E80120D0
S3150800200068B1EFF311834FF0000282F31188BFF332
S315080020106F8FBFF34F8FC06C83F311887047014BE6
S315080020205868EEE7F8E8012018B1C36C33B10846E2
S315080020301847034B5868C36C002BF8D118467047ED
S31508002040F8E80120194AD2F87C311BB10123C2F8FD
S315080020507831704710B4C2F87831D2F8583102EBAB
S31508002060431059018068E8B902F10800013B59019B
S315080020704458002CFAD002EB010C08310144DCF874
S315080020800C005DF8044B8068CCF80C00884204BF4D
S31508002090DCF81800CCF80C0001695160C2F8583118
S315080020A05368704702F10800E5E700BFF8E8012029
S315080020B070B504462A4E01F041FB002C38D004F1D5
S315080020C008052846FEF75EFF636B1BB104F1200086
S315080020D0FEF758FF23482946FEF724FF94F85430A4
S315080020E0012B04BF002384F8543001F037FBD6F8DF
S315080020F050316BB97368A34200D070BDD6F8503121
S31508002100FBB93168D6F82821914225D1736070BD94
S3150800211001F014FBD6F848311B685BB1D6F8483194
S315080021201B69D3E90023C6E95A2301F017FBE1E747
S315080021307468C4E74FF0FF324FF0FF33C6E95A23FD
S31508002140F3E74FF0E0234FF08052C3F8042DBFF3B6
S315080021504F8FBFF36F8F70BDBDE87040FFF772BF3A
S31508002160F8E8012020EA012038B5074949681546EC
S315080021701C462031FEF7E6FE284621460122BDE828
S315080021803840FEF7AFBF00BFF8E801200F4930B46A
S315080021900446486843F0004302626268436248683E
S315080021A04B688262D068D8624B68D06820338360F7
S315080021B0236848684D6820300133D0606C63DDE9D8
S315080021C002012360012230BCFEF78CBFF8E801202B
S315080021D0F0B5124D4668DDF814C0F168044610469D
S315080021E06A6896626A686F68D162226869686D680B
S315080021F002F1010EF268203720319760F1606C63B6
S31508002200C4F800E0BCF1000F02D04FF0FF300346DF
S31508002210BDE8F04062461946FEF764BFF8E80120BB
S3150800222003691B69D3E90A02596BF0B4C26090606E
S31508002230486803F12004A042086808BF4A60304A8B
S31508002240002501385D630860D2F87C11002932D177
S3150800225018695C69D969C4605C692A4EA0604868D7
S3150800226003F10807B842086808BF4C6001380860DF
S31508002270996BD2F8580102EB41148142E06888BF95
S31508002280C2F85811C5685D61A568186105F1010CA9
S31508002290C56806EB4116AF60C760DE61D2F8483103
S315080022A0C4F808C01B6813BB4FF0FF344FF0FF3566
S315080022B0C2E95A4510E0D2F8EC109962C868D862AB
S315080022C0C8688460D2F8E800CC6002F1E8050130FD
S315080022D0996BC2F8E8005D6353689B6B8B4234BF09
S315080022E001200020F0BC38BFC2F878017047D2F848
S315080022F048311B69D3E90045C2E95A45ECE700BFF6
S31508002300F8E8012000E90120F0B58468026043F08E
S315080023100043C268416943600369E260C268946029
S315080023204C68844208BF4A600C68254A0025456106
S31508002330013CD2F848510C602968002937D14FF082
S31508002340FF304FF0FF31C2E95A01D3E90440D96999
S31508002350E06084604C681B4D03F10806B44208BF70
S315080023604860086801380860996BD2F858018142BC
S3150800237088BFC2F85811506802EB411C876BDCF81D
S315080023800C001861C4685C61DCF8084004F1010EB1
S31508002390C468B94205EB4115A660C660DD6188BF11
S315080023A00123CCF808E088BFC2F87831F0BDD2F82E
S315080023B048110969D1E90001C2E95A01C5E700BF18
S315080023C0F8E8012000E9012010B5044601F0B6F945
S315080023D0054BD3F874112160D3E95823C4E90223C5
S315080023E0BDE8104001F0BAB9F8E80120044BD3F86B
S315080023F07421026093ED587B80ED027B704700BF25
S31508002400F8E801202DE9F04383B005460C4601F0B3
S3150800241095F9244AD2E95867536893F856305BB160
S315080024205368002283F856200120019001F096F99E
S31508002430019803B0BDE8F083D4E90090B0F1FF3FFE
S3150800244008BFB9F1FF3F2AD0D2F8743129689942FA
S31508002450D5E902CE09D0664577EB0E0305D30022EF
S315080024600023C4E900230120DFE7B6EB0C0867EB7D
S315080024700E03C8458341F2D2B9EB060160EB0700AB
S3150800248011EB0C012160D2F87411D2E958234EEBF6
S3150800249000006060C5E9022329600020C5E71846E8
S315080024A0C3E700BFF8E80120024B0122C3F87821F0
S315080024B0704700BFF8E801200C4BD3F8E80018B9BC
S315080024C0D3F8782112B1704700207047D3E9F80194
S315080024D0014301D0104670471A68D3F82801531EE5
S315080024E0984214BF01200220704700BFF8E8012077
S315080024F060B1C36B1A78A52A0ED1C3F10101C818B9
S3150800250013F8012FA52AFAD080087047034B58689C
S31508002510C36B1A78A52AF0D000207047F8E8012086
S31508002520014B5868704700BFF8E8012010B9024B04
S315080025305868704700207047F8E80120064BD3F822
S31508002540502132B1D3F87C31002B0CBF0220002079
S3150800255070470120704700BFF8E80120F8B5044627
S31508002560D0B1214D836B6A68926B934215D2426A49
S31508002570002A07DB6A68926BD2F1050261EB01015A
S31508002580C0E90821194EE26906EB43139A420CD0BA
S315080025906B689B6BA3630120F8BD6B68406C9B6BF3
S315080025A098422CBF00200120F8BD04F108073846E0
S315080025B0FEF7E8FC6B68D5F858219B6BA36393423A
S315080025C088BFC5F8583105EB431506EB4316AB68CB
S315080025D05A1CEB682361D9686161D96801208F604C
S315080025E0DF60E661AA60F8BDF8E8012000E901208D
S315080025F058B1836C816B426C013B914270B50446BD
S31508002600836400D01BB1002070BD0020704700F124
S3150800261008063046FEF7B6FC626CA263D2F10503E3
S3150800262023620E4B61EB01016162D3F858118A42AD
S3150800263088BFC3F8582103EB4213D9682161C868DB
S3150800264060619868451C064800EB4212C8688660B7
S31508002650CE600120E2619D6070BD00BFF8E80120F0
S3150800266000E9012060B1426CF8B59142836B38BF2E
S3150800267011468B42044602D0826C012A01D0F8BD6D
S315080026807047426A8163002A05DBD1F1050162EBD6
S315080026900202C0E90812124DE26905F1080606EBC6
S315080026A043139A42EBD104F108073846FEF76AFC51
S315080026B0A36BD5F85821934288BFC5F8583105EB66
S315080026C0431506EB4316AB685A1CEB682361D968B9
S315080026D06161D9688F60DF60E661AA60F8BD00BFF6
S315080026E0F8E80120084A5168536852689B6BD3F191
S315080026F0050310B464EB0404D1E90801C2E90834FF
S315080027005DF8044B704700BFF8E80120034B586892
S3150800271010B1836C01338364704700BFF8E8012069
S315080027202DE9F0472A4D0F4600F11406696851F85D
S315080027302610044621B9984652EA080391461BD149
S3150800274000F0FCFF6B6853F82680B8F1000F04D040
S315080027506B6867B1002243F826206B681C44002288
S3150800276084F8542000F0FAFF4046BDE8F08708F1E7
S31508002770FF3243F82620F0E7D5F87C310133C5F857
S315080027807C3100F0DBFF6B6853F8263023B100F08C
S31508002790E5FFFFF73DF9D3E76B6823444FF0010ADD
S315080027A083F854A000F0DAFF524648464146FEF741
S315080027B099FCFFF72DF90028C2D14FF0E0234FF01E
S315080027C08052C3F8042DBFF34F8FBFF36F8FB7E75F
S315080027D0F8E801202DE9F04F364D1E466B68034494
S315080027E083B093F85430DDF83080DDF834A0022B3E
S315080027F00446174602D058EA0A031BD100F09EFF8A
S315080028002EB16B6804F1140253F8223033606B68FA
S31508002810234493F85430022B3DD000206B68019076
S315080028201C44002284F8542000F098FF019803B055
S31508002830BDE8F08FD5F87C3101338946C5F87C317F
S3150800284000F07CFF6B68234493F85430022B2BD09E
S315080028506B6803EB84034FF0010B196D21EA09013C
S3150800286019656B68234483F854B000F077FF5A461D
S3150800287040465146FEF736FCFFF7CAF80028BDD198
S315080028804FF0E0234FF08052C3F8042DBFF34F8F6B
S31508002890BFF36F8FB2E76B6803EB840301201A6DF1
S315080028A022EA07071F65B9E700F058FFFFF7B0F8F7
S315080028B0A4E700BFF8E801202DE9F04182B00446FC
S315080028C0DDF820800D4617461E4600F037FFB8F1A2
S315080028D0000F05D005F1140354F82330C8F800306A
S315080028E06119022291F8540081F85420731EC0B26F
S315080028F0032B08D8DFE803F05B110402022863D033
S31508002900143544F8257001280FD00120019000F0F5
S3150800291025FF019802B0BDE8F08104EB8505012882
S315080029202B6D03F101032B65EFD1D4E90413E2699A
S31508002930CB6099605168254E04F10807B9421168C1
S3150800294008BF536001391160214BA26BD3F85811A7
S3150800295003EB42108A42C16888BFC3F85821CD6884
S3150800296065618568216105F1010CCD6806EB4216A3
S31508002970AF60CF60D3F84811E661C0F808C00968AF
S31508002980D9B1D3F848110969D1E90001C3E95A0157
S315080029905B689B6B9A42B8D94FF0E0234FF08052A0
S315080029A0C3F8042DBFF34F8FBFF36F8FADE704EB6A
S315080029B085052A6D17432F65A5E74FF0FF304FF0C1
S315080029C0FF31C3E95A01E3E700209FE700E9012048
S315080029D0F8E80120F0B5059CEFF311854FF00006E5
S315080029E086F31188BFF36F8FBFF34F8F24B101F1C0
S315080029F0140650F82660266000EB010C02249CF8A9
S31508002A0054E08CF85440013B5FFA8EFC032B09D83E
S31508002A10DFE803F03E0F0502BCF1020F72D0143155
S31508002A2040F82120BCF1010F0CD0012085F3118854
S31508002A30F0BD00EB8101BCF1010F0B6D03F1010341
S31508002A400B65F2D1344BD3F87C213AB3D3F8EC209A
S31508002A508262D168C162D3F8E8100131C3F8E81080
S31508002A60D16800F120048C60D46003F1E801826B20
S31508002A7041635968896B9142D7D2069A12B1069971
S31508002A8001220A600120C3F8780185F31188F0BD98
S31508002A9000EB81010B6D1A430A65C3E7D0E90441CF
S31508002AA0C269E1608C6054681C4F00F1080C6445EB
S31508002AB008BF5160116801391160826BD3F858114B
S31508002AC003EB42148A42E16888BFC3F85821CE68EE
S31508002AD04661A668016106F1010ECE6807EB42174A
S31508002AE0C6F808C0C1F80CC0D3F84811C761C4F8C5
S31508002AF008E0096841B94FF0FF304FF0FF31C3E9EC
S31508002B005A01B6E7002091E7D3F848110969D1E9D7
S31508002B100001C3E95A01ACE7F8E8012000E9012001
S31508002B202DE9F041EFF3118C4FF0000383F3118880
S31508002B30BFF36F8FBFF34F8F4318022400EB810159
S31508002B4093F854E083F854400B6DBEF1010F03F17E
S31508002B5001030B6503D08CF31188BDE8F081304B77
S31508002B60D3F87C1101B3D3F8EC108162CC68C46247
S31508002B70D3F8E840CD680134C3F8E84000F12004F2
S31508002B80AC60CC6003F1E8014163816B5868806BE7
S31508002B908842E0D20AB1012111600122C3F87821E6
S31508002BA08CF31188BDE8F081D0E90454C169EC6062
S31508002BB0A5604D681B4E00F10807BD4208BF4C6072
S31508002BC00C68013C0C60816BD3F8584103EB411E3D
S31508002BD0A142DEF80C4088BFC3F85811E568456184
S31508002BE0DEF80850046105F10108E56806EB4116B0
S31508002BF0AF60E760C661D3F84801CEF80880006880
S31508002C0030B94FF0FF344FF0FF35C3E95A45BDE7F9
S31508002C10D3F848010069D0E90045C3E95A45B5E744
S31508002C20F8E8012000E9012030B50D4683B090B1DF
S31508002C3004462C4400F082FD94F85430022B05BF5C
S31508002C4000230120002084F85430019000F086FD0E
S31508002C50019803B030BD014B5C68EAE7F8E801204B
S31508002C6070B50E4682B0154678B1044600F066FD8A
S31508002C7004EB8601086D0B6D019023EA05030B65CD
S31508002C8000F06CFD019802B070BD014B5C68EDE781
S31508002C90F8E80120064B10B403F5C074046003F588
S31508002CA0EC7380200B605DF8044B1060704700BF22
S31508002CB0F8E80120064B10B403F57A74046003F5AE
S31508002CC0886380200B605DF8044B1060704700BF76
S31508002CD0F8E801200D4B0022002000215A60C3F8B5
S31508002CE05421C3F870211A60C3E95801C3F8582162
S31508002CF0C3F85021C3E9F801C3F87821C3F8742151
S31508002D00C3E95A01C3F87C21704700BFF8E80120DF
S31508002D10F0B5134C83B000F011FD256825B103B05A
S31508002D20BDE8F04000F01ABD04F10807384604F182
S31508002D302806FEF7E3F83046FEF7E0F8009504F1BA
S31508002D40500304F1B80218210A20C4E91276FDF7E7
S31508002D5017FB206003B0BDE8F04000F0FFBC00BFE1
S31508002D6038EF01202DE9F8430446DDE908670AE053
S31508002D70B21A67EB03038A42834125D3E36A2046E6
S31508002D8098472A464346D4E908108D1850EB03089D
S31508002D904FF0000EF44628BF4FF0010EAE4277EB17
S31508002DA00809C4E90258A461E2D2964277EB030304
S31508002DB002D25EEA0C03E1D0074B04F10801986CD5
S31508002DC0BDE8F843FEF7BEB8034B04F10801D86C1A
S31508002DD0BDE8F843FEF7B6B838EF01202DE9F04113
S31508002DE0114CA46C2469246982B0064604F10800D3
S31508002DF00D4690461F46FEF7C5F894F830C01CF0FD
S31508002E00040F09D12CF0010C84F830C0E36A20467F
S31508002E1002B0BDE8F0411847CDE9008732462B4697
S31508002E202046FFF79FFFF1E738EF01202DE9F04F25
S31508002E30974C8BB00026A36C1D68002D00F0EB8024
S31508002E401B69D3E90059FEF7D9FDFEF75BFFD4F8F5
S31508002E50A8319842D4F8AC3171EB0303074688468B
S31508002E6056D3A84271EB0903C4E96A0180F0FB80D6
S31508002E700021EA1B69EB080320680091FDF77AFF39
S31508002E80FEF7C6FD48B94FF0E0234FF08052C3F86D
S31508002E90042DBFF34F8FBFF36F8FCDE90466CDE9DD
S31508002EA00666CDE9086620680022002304A9FDF716
S31508002EB0C5FC0028BFD0049B002BC0F2A380089D48
S31508002EC0EB691BB105F10800FEF75CF8FEF71AFF7F
S31508002ED0D4E96A23904271EB0303074688462CD34C
S31508002EE0049BC4F8A871013BC4F8AC81082BDAD856
S31508002EF0DFE803F02B2B785A7F2B2B785A002969A9
S31508002F004FF0FF32D1E900014FF0FF33FFF766FFBC
S31508002F10A56C2B68002BF2D1E36CC4E96A78C4E986
S31508002F201235FEF775FDB8E719694FF0FF32D1E99A
S31508002F3000014FF0FF33FFF751FFA36C1A68002A10
S31508002F40F2D1E26CC4E91223CAE706992A6A95F80F
S31508002F5030C007986B6AAD6111EB020B50EB030AA0
S31508002F604CF0010E4FF0000985F830E0CE4628BF38
S31508002F704FF001095F45CDF80CE078EB0A0EC5E97C
S31508002F8002BA62D3791A68EB0000914270EB030328
S31508002F9022D31CF0040F73D12CF0010C85F830C035
S31508002FA0EB6A284698477EE7DDE9063195F8302032
S31508002FB0AD6113EB070C41EB080042F001026745CF
S31508002FC085F8302078EB0002C5E90831C5E902C06A
S31508002FD043D30B433FF467AFE06C05F10801FDF7F7
S31508002FE0B1FF60E795F8303023F0010385F83030FB
S31508002FF059E795F830309A073ED523F0010385F84E
S31508003000303050E7069BDDE907019847049B002B03
S31508003010FFF649AF53E7FEF7F1FCFEF773FED4F867
S31508003020A8319842D4F8AC3171EB030307468846B9
S31508003030FFF46EAFE36CC4F8A8711968C4F8AC81E4
S31508003040B1FA81F14909A94613E78F4278EB0003E3
S3150800305003D2039B59EA03039BD0A06C05F1080130
S31508003060FDF770FF1FE7FEF7D3FC3A4643462846AE
S315080030704946FFF7B3FE10E7284600F00DFD12E7B4
S31508003080CDE900785A4653462846FFF76BFE87E790
S3150800309038EF012030B5104C89B0FFF739FE2068AB
S315080030A0C0B1002507AA06A905A8CDE90555FFF769
S315080030B001FEDDE905120423CDE901210093079AF3
S315080030C0064907482B46FEF7D3F9C4F8B001401B5A
S315080030D018BF012009B030BD38EF0120083C0008B0
S315080030E02D2E0008F8B50746382016461D4600F06E
S315080030F057FC0446B8B1002380F83030FFF708FEC5
S31508003100079BA362089BE362C4E90865276004F18C
S315080031100800FDF703FF069B2BB194F8303043F007
S31508003120040384F830302046F8BD00BFF8B5099C82
S31508003130D4B11D46022384F8303007461646FFF7F9
S31508003140E7FD079BA362089BE362C4E9086527605D
S3150800315004F10800FDF7E2FE069B2BB194F8303027
S3150800316043F0040384F830302046F8BD30B50E4CE1
S31508003170256889B02DB10529CDE904230291069069
S3150800318002DD002009B030BDFFF7D8F90023022878
S31508003190009320680EBFDDE90E230022002302A952
S315080031A0FDF7B2F909B030BD38EF012010B50A4C69
S315080031B0246886B02CB10529CDE902230091049034
S315080031C002DC002006B010BD089A00236946204696
S315080031D0FDF7ACFA06B010BD38EF0120014BD3F865
S315080031E0B001704738EF0120D0E90801704700BFE9
S315080031F038B504460D4600F0A1FA94F830303DB1D2
S3150800320043F0040384F83030BDE8384000F0A6BA2D
S3150800321003F0FB0384F83030BDE8384000F09EBA6E
S3150800322010B5044682B000F089FA94F83000C0F36D
S315080032308000019000F092FA019802B010BD00BF1C
S3150800324010B5044682B000F079FA94F83000C0F35D
S315080032508000019000F082FA019802B010BD00BF0C
S31508003260D0E90201704700BF90F8303013F002032E
S315080032701ABF086001201846704700BF00687047EB
S3150800328010B5044682B000F059FA94F8300000F000
S315080032900100019000F062FA019802B010BD00BF6B
S315080032A010B5044682B000F049FAA06A019000F011
S315080032B055FA019802B010BD38B504460D4600F01F
S315080032C03DFAA562BDE8384000F048BA30B5144664
S315080032D087B01A46064B02900391186804946FF05B
S315080032E00105002369460095FDF720FA07B030BDB1
S315080032F038EF012070B50A4D88B004460B46002603
S315080033004FF0FF31CDE904430291069228680096F2
S31508003310DDE90C2302A9FDF7F7F808B070BD00BF78
S3150800332038EF0120024B00221A60C3F8B02170471B
S3150800333038EF012010B5044640B100230022E0E82A
S315080033400223FDF7DBFD012384F82830204610BD53
S3150800335010B5302000F024FB044640B100230022BB
S31508003360E0E80223FDF7CAFD002384F8283020464A
S3150800337010BD00BF2DE9F04F83B00546914698462B
S31508003380DDE90D6BDDF83CA0FEF738FBD5E90074E6
S3150800339007EA090304EA080286B9134312D00C9B0C
S315080033A09BB127EA090224EA0803C5E90023FEF7C8
S315080033B02FFB3846214603B0BDE8F08F904508BF7D
S315080033C09945ECD05BEA0A0306D1FEF721FB38469D
S315080033D0214603B0BDE8F08F0C9B002B0CBF0023E1
S315080033E04FF0807316BB43EA08034A4605F1080006
S315080033F0CDE900BAFEF7CAFEFEF70AFB48B94FF058
S31508003400E0234FF08052C3F8042DBFF34F8FBFF36C
S315080034106F8FFFF767F98B0107460C4609D524F02D
S315080034207F443846214603B0BDE8F08F43F08063F9
S31508003430D9E700F083F9D5E9007409EA070308EA31
S31508003440040266B9134307D00C9B2BB127EA09027D
S3150800345024EA0803C5E9002300F080F9DFE7904570
S3150800346008BF9945F8D1EFE72DE9F041044616461D
S315080034701D4600F063F9D4E9008728EA060627EA1C
S315080034800505C4E9006500F069F940463946BDE816
S31508003490F08100BFEFF311834FF0000282F3118829
S315080034A0BFF36F8FBFF34F8FD0E9000183F3118805
S315080034B0704700BF2DE9F84F074615461E46FEF72A
S315080034C09DFA3A687B68BC6907F1100A15431E43E2
S315080034D0A2453D607E602FD04FF00008C14612E03D
S315080034E05BEA0E0C0DD0DB0148BF42EA080846F03D
S315080034F000732A4648BF41EA0909FEF705FFD7E9DE
S315080035000056A24514D02046D0E9002323F07F4177
S3150800351013F0806FA46802EA050B01EA060EDFD0F5
S3150800352001EA060E8E4508BF9345DCD0A245EAD1CE
S3150800353025EA080526EA0906C7E90056FEF768FAE5
S3150800354028463146BDE8F88F2DE9F04F044683B08A
S31508003550DDE90C9815461F46DDE90EBAFEF74EFA68
S3150800356026682A462E4365683B463D432046FFF7B4
S31508003570A1FF06EA090205EA0803434508BF4A45CA
S3150800358030D05BEA0A0308D1D4E90065FEF740FAB1
S315080035903046294603B0BDE8F08F4A4648F0A06396
S315080035A004F10800CDF800B0CDF804A0FEF7EEFD52
S315080035B0FEF72EFA48B94FF0E0234FF08052C3F8D1
S315080035C0042DBFF34F8FBFF36F8FFFF78BF88B0177
S315080035D006460D4615D525F07F453046294603B0E3
S315080035E0BDE8F08F236823EA09032360636823EAAA
S315080035F008036360FEF70CFA3046294603B0BDE8B7
S31508003600F08F00F09BF8D4E9006509EA060208EA9B
S315080036100503434508BF4A4505D126EA090225EAB6
S315080036200803C4E9002300F099F8D4E710B5044666
S31508003630FEF7E4F9A36843B14FF00073A0690022CE
S31508003640FEF762FEA368002BF6D1FEF7E1F994F8BF
S31508003650283003B110BD2046BDE8104000F01CBA62
S3150800366090F82830012B06BF0860184600207047DE
S315080036700A460023FFF71EBF38B504460D4600F07C
S315080036805DF8236823EA05032360BDE8384000F0A7
S3150800369065B800BF82B0002301934FF0000383F39F
S315080036A01188BFF36F8FBFF34F8F019B002BFCD0A0
S315080036B002B0704708480068006880F308884FF031
S315080036C0000080F3148862B661B6BFF34F8FBFF36C
S315080036D06F8F00DF00BF000008ED00E0DFF80C0088
S315080036E0016841F4700101607047000088ED00E050
S315080036F010B44FF08073074C40F8043C21F00101E8
S315080037006FF0020340E9034140E909325DF8044BD2
S315080037104438704795360008064B19680868B0E8BB
S31508003720F04F80F30988BFF36F8F4FF0000080F3E6
S3150800373011887047FCE80120704700BF4FF000036E
S3150800374083F31188BFF36F8FBFF34F8F024A136855
S3150800375001331360704700BF04000020034A136852
S31508003760013B13600BB983F31188704704000020EE
S31508003770EFF30980BFF36F8F144B1A681EF0100F12
S3150800378008BF20ED108A20E9F04F10602DE90900E6
S315080037904FF0000080F31188BFF34F8FBFF36F8F90
S315080037A0FEF750FC4FF0000080F3118809BC196839
S315080037B00868B0E8F04F1EF0100F08BFB0EC108A8A
S315080037C080F30988BFF36F8F70470000FCE801207B
S315080037D008B54FF0000383F31188BFF36F8FBFF36B
S315080037E04F8FFEF7D1FB28B14FF0E0234FF0805200
S315080037F0C3F8042D002383F3118808BDF8B5404C9F
S31508003800074625680E4672B6BFF34F8FBFF36F8F14
S31508003810FEF752FE00286BD04FF0E02306221A610D
S315080038209A69002A66D0D4F804E0AF4276F100011E
S315080038304FF0E0212B46D1F8045D38BF3B464FF0E8
S31508003840000C38BFB446581E6E0100FB0E2205D583
S315080038506568521B4FF00075C1F8045DA168914276
S3150800386038BF521A4FF0E02100254A618D610D6973
S3150800387045F001050D6153EA0C0104D0BFF34F8FE3
S3150800388030BFBFF36F8F62B6BFF34F8FBFF36F8F33
S3150800389072B6BFF34F8FBFF36F8F4FF0E021062547
S315080038A00D610D69ED030CD58B6961680B44013B0D
S315080038B09A1AA368934220D34A1E4FF0E0235A610E
S315080038C00BE062688D6902FB03F3581BEB1AB0FB29
S315080038D0F2F000FB022213444B6162684FF0E023CA
S315080038E00021013A072499611C615A61FEF7B4FA6E
S315080038F062B6F8BD6268964697E79142DDD2DBE785
S31508003900ECF0012030B44FF0E023084A084C09488F
S3150800391000215325C2E900541961996107215861AC
S3150800392019615E2330BC9360704700BFECF001203C
S31508003930400D03003F0D030030B54FF0E02400258D
S31508003940D4F8203D43F47F03C4F8203DD4F8203D45
S3150800395043F07F4383B0C4F8203DC4F81C5DFFF7ED
S31508003960D1FF0E4B1D60FFF7B9FED4F8343F43F084
S315080039704043C4F8343FFFF79DFEFEF763FB01950D
S315080039804FF0000383F31188BFF36F8FBFF34F8F98
S31508003990019B002BFCD0002003B030BD04000020A2
S315080039A0F8B5431E0A3341D800F1080410F00700A1
S315080039B046D1FEF723F836488368002B65D02346A0
S315080039C0002B38DD0769A74235D30368304D03E07D
S315080039D01A6822B11D4613465968A142F8D382686F
S315080039E09A4228D02E681A682A60A1EB040CBCF10A
S315080039F0100F06F1080605D91919C1F804C01A519D
S31508003A0029602146C2687F1A97424269076141F0D8
S31508003A1000414FF0000402F101021C60596038BFF2
S31508003A20C7604261FDF7F4FF3046F8BDFDF7E6FFD3
S31508003A30174883685BB10026FDF7EAFF3046F8BDF4
S31508003A40C0F10800C343A342F0D30444B1E71C46BF
S31508003A50104D6A0712D105F5805229462E46083AB6
S31508003A6022F00702511A00250660C0E90221C2E9C0
S31508003A70005501614560C6E90021A1E7E91D21F06D
S31508003A80070105F580520E46E9E72346E0E700BF41
S31508003A90F8F001200800002030B150F8043C002B53
S31508003AA002DA50F8082C02B1704730B523F000430B
S31508003AB083B040F8043C0190FDF7A0FF1749019830
S31508003AC00B6950F8044C23440B6108380B461A4618
S31508003AD01B689842FBD8556802EB050C604518D060
S31508003AE00519AB420CD003608B69824203F10103CE
S31508003AF018BF10608B6103B0BDE83040FDF788BF82
S31508003B008D68AB42EFD05D681B682C44C0E9003471
S31508003B10EAE72C4454601046E2E700BFF8F00120BB
S31508003B20014B1869704700BFF8F00120014BD868AF
S31508003B30704700BFF8F00120014B1A69DA60704738
S31508003B40F8F00120704700BF38B518B1A0FB012373
S31508003B50002553B901FB00F42046FFF721FF05466F
S31508003B6018B122460021FCF7EBFA284638BD00BFFB
S31508003B702DE9F041DFF868800746FDF73FFFD8F8E2
S31508003B80003043B3D8F808108B4224D000244FF0F5
S31508003B90FF362546D3E90032944238BF144696428A
S31508003BA028BF16468B4205F10105F3D1FDF730FF14
S31508003BB0C7E90146FD60FFF7C1FDD8E90401D8F859
S31508003BC01820D8F80C303860C7E905123B61BDE803
S31508003BD0F041FFF7C3BD00244FF0FF362546E5E761
S31508003BE0F8F00120034B0022C3E90322C3E90522AA
S31508003BF09A607047F8F001205461736B3100000039
S31508003C005461736B32000000546D72205376630062
S30D08003C1004000000AAAAAAAAF2
S705080000DD15
