S017000046756C6C5F62696E2F70726F6772616D2E7331398B
S3150000000000000000000000000000000000000000EA
S3150000001000000000000000000000000000000000DA
S3150000002000000000000000000000000000000000CA
S3150000003000000000000000000000000000000000BA
S3150000004000000000000000000000000000000000AA
S31500000050000000000000000000000000000000009A
S31500000060000000000000000000000000000000008A
S31500000070000000000000000000000000000000007A
S31500000080000000000000000000000000000000006A
S31500000090000000000000000000000000000000005A
S315000000A0000000000000000000000000000000004A
S315000000B0000000000000000000000000000000003A
S315000000C0000000000000000000000000000000002A
S315000000D0000000000000000000000000000000001A
S315000000E0000000000000000000000000000000000A
S315000000F000000000000000000000000000000000FA
S3150000010000000000000000000000000000000000E9
S3150000011000000000000000000000000000000000D9
S3150000012000000000000000000000000000000000C9
S3150000013000000000000000000000000000000000B9
S3150000014000000000000000000000000000000000A9
S315000001500000000000000000000000000000000099
S315000001600000000000000000000000000000000089
S315000001700000000000000000000000000000000079
S315000001800000000000000000000000000000000069
S3150800000000000220DD000008A9000008AD00000875
S31508000010B1000008B5000008B9000008000000009B
S31508000020000000000000000000000000BD000008FD
S31508000030C100000800000000C5000008C90000084B
S31508000040CD000008D1000008D5000008D900000836
S3150800005008B500F027F8FCE708B500F021F8FCE73A
S3150800006000B5002483B0012509490A4823468022A1
S31508000070CDE9005401F022FA0749084823468022B0
S31508000080CDE9005401F01AFA01F02CFCFEE700BF96
S31508000090683B000851000008703B0008590000083A
S315080000A00020704700207047FEE700BFFEE700BF4C
S315080000B0FEE700BFFEE700BFFEE700BFFEE700BFA2
S315080000C0FEE700BFFEE700BFFEE700BFFEE700BF92
S315080000D0FEE700BFFEE700BFFEE700BF08B50E4A11
S315080000E00E4B934208D2013AD21A22F003020C4967
S315080000F00432184600F01AF80A4A0B4B934208D203
S31508000100013AD21A22F0030204320021184600F0FE
S3150800011017F8FFF7A5FFFEE70400002000000020FF
S31508000120843B000814F10120080000203AB1431E60
S315080001300A4411F801CB03F801CF9142F9D170476F
S3150800014010B5044612B1C9B2FFF7FAFF204610BD32
S31508000150FEE700BFFEE700BF4FF0FF30704700BF65
S31508000160104670474FF0FF30704700BF4FF40053FA
S315080001704B600020704700BF012070470020704781
S3150800018000207047012070474FF0FF30704700BFCE
S31508000190836D70B5056D04462BB90668013546B3FF
S315080001A01846256570BD164682B91A464068FFF797
S315080001B0BDFF6368A16DA2680B449342636024BFC8
S315080001C02368636001350020256570BD1A46C0683E
S315080001D0FFF7ACFFA26DE36851429B1A2268E36001
S315080001E0934202D2A3680B44E360022E06D001357F
S315080001F0E9E7806802F0C4F9A660D2E7012D38BFA6
S3150800020001250020CDE700BF70B5046E226D636D31
S3150800021082B09A42019003D30025284602B070BDE9
S3150800022094F85D60002201A92046FFF7B1FF76B277
S31508000230731C05460AD1236B002BEED004F130005F
S3150800024001F0C2FF002818BF0125E6E701F04EFDC0
S315080002508642E2D2013676B284F85D60DDE700BFF9
S3150800026070B5054603F01EFA95F85D305CB2002CB1
S315080002701BDD05F1300606E0FFF7C6FF70B9631E01
S31508000280DAB25CB28AB12B6E2846002BF4D12B6BFE
S31508000290304653B101F098FF0028F0D002F0CCF8B0
S315080002A0631EDAB25CB2002AEDD1FF2385F85D3011
S315080002B003F008FA03F0F6F995F85C305CB2002C06
S315080002C014DD05F1100603E0631EDAB25CB26AB10A
S315080002D02B69304653B101F077FF0028F4D002F0BD
S315080002E0ABF8631EDAB25CB2002AF1D1FF2385F8B7
S315080002F05C30BDE8704003F0E5B900BF70B5044650
S3150800030000B3406DF0B1A36DA3FB00350022A5BB79
S315080003100E4603F0C7F9D4E915232168256503FBC2
S3150800032002F2D31A0A44A2600B44FF2284F85C2026
S315080003306160E36084F85D20B6B923691BB903F0F0
S31508000340C1F9012070BD04F1100001F03DFF00283D
S31508000350F5D04FF0E0234FF08052C3F8042DBFF3D9
S315080003604F8FBFF36F8FEAE704F1100000F0B0FD7E
S3150800037004F1300000F0ACFDE1E7104670BD00BFA7
S3150800038070B338B51C468BB35AB369B3012384F8E6
S315080003905E30A1FB0035C4E915012260E5B903F01A
S315080003A081F9D4E915232168256503FB02F2D31ADE
S315080003B00A440B44A260FF2284F85C206160E36073
S315080003C084F85D2004F1100000F082FD04F130008D
S315080003D000F07EFD03F076F900232366204638BD3B
S315080003E0704729B91A46D1E7084638BD184638BDB8
S315080003F0104638BD90F85E30012B01D000207047BA
S3150800040009B103680B60106001207047F8B5F0B1B8
S31508000410A1FB00370D460446CFB901FB00F010F1E9
S31508000420690F14D8683003F06BFA064678B180F87D
S315080004305E707DB100F168033360C6E91545012198
S315080004403046FFF75BFF002333663046F8BD0026CB
S315080004503046F8BD0346EFE768B3884270B50D46E7
S315080004602AD314462AB301230026C2E9150682F8C0
S315080004705E30126003F016F9D4E915232168266563
S3150800048003FB02F2D31A0B440A44E360FF2384F801
S315080004905C30A260616084F85D3004F1100000F001
S315080004A017FD04F1300000F013FD03F00BF9266682
S315080004B02565204670BD7047002070BDF8B5044616
S315080004C0A0B188420E4611D3682003F019FA0546F2
S315080004D068B10027C0E9154780F85E700121006001
S315080004E0FFF70CFF2F662E652846F8BD002528461F
S315080004F0F8BD00BFF0B5044687B0CDE900230C9FD0
S315080005000E4603F0CFF8226D636D9A4257D3022F39
S3150800051072D0002215460EE003F0D4F82046FFF705
S315080005209FFE01F053FA03F0BDF8216D636D994201
S315080005304FF0010243D3DDE90030034367D0002AB8
S3150800054039D003F0BFF801F037FA03F0ABF894F8A6
S315080005505C30FF2B08BF84F85C5094F85D30FF2BA5
S3150800056008BF84F85D5003F0ADF8694602A801F0AB
S3150800057015FF002850D103F095F8226D636D9A4255
S31508000580CAD103F09FF8DDE9002304F1100001F059
S31508000590BDFD2046FFF764FE01F018FA0028C2D117
S315080005A04FF0E0234FF08052C3F8042DBFF34F8F6E
S315080005B0BFF36F8FB7E702A801F0E4FEC1E73A463A
S315080005C031462046256DFFF7E3FD236E53B3022F10
S315080005D01AD02046FFF718FE48B14FF0E0234FF037
S315080005E08052C3F8042DBFF34F8FBFF36F8F03F00C
S315080005F069F8012007B0F0BD3A4631462046256D18
S31508000600FFF7C6FD236E6BB1002DF0D1E1E703F0CD
S3150800061059F8002007B0F0BD2046FFF721FE01F08B
S31508000620D5F9F6E7236B13B90028E0D0D5E704F12E
S31508000630300001F0C9FD0028D9D0CEE730B50C4608
S3150800064083B071B30025012381F85E302160C1E9CA
S31508000650153503F027F8D4E915232168616003FBF3
S3150800066002F2D31A0A440B44A260FF22E36025650E
S3150800067004F1100084F85C2084F85D2000F028FC62
S3150800068004F1300000F024FC03F01CF82566A56090
S315080006902560E56000220023009529462046FFF7DD
S315080006A029FF204603B030BD30B583B085680446BF
S315080006B001F000FF854202D0002003B030BDE1689A
S315080006C00139E16009B10120F7E700910022002312
S315080006D02046FFF70FFFF6E730B5682083B003F032
S315080006E00FF9044698B10025012180F85E50206074
S315080006F0C0E91515FFF702FE2566A5602560E560C9
S3150800070000220023294600952046FFF7F3FE2046DF
S3150800071003B030BD2DE9F843044690461D46EFF375
S3150800072011874FF0000383F31188BFF36F8FBFF370
S315080007304F8F026D436D9A4206D3022D04D00020D6
S3150800074087F31188BDE8F88394F85D60D4F8509073
S3150800075076B22A462046FFF71BFD731C15D1236E79
S31508000760EBB1022D02D1B9F1000F09D12046FFF7EE
S315080007704BFD28B1B8F1000F02D00123C8F80030AC
S31508000780012087F31188BDE8F88301F0AFFA8642A5
S31508000790F6D2013676B284F85D600120F1E7236B64
S315080007A0002BEDD004F1300001F00EFD0028E1D158
S315080007B0E6E700BFF8B5EFF311864FF0000383F3C1
S315080007C01188BFF36F8FBFF34F8F036D426D9A4247
S315080007D014D990F85D200133FF2A0446036557B201
S315080007E010D1036E0D46BBB1FFF70EFD10B10DB16A
S315080007F001232B60012086F31188F8BD002086F3BB
S315080008001188F8BD01F072FA8742F3D201377FB238
S3150800081084F85D700120EEE7036B002BEAD03030D8
S3150800082001F0D2FC0028E2D1E4E700BF2DE9F0414F
S31508000830044686B0CDE90023884602F033FF266DCC
S3150800084000252F46002E42D1DDE90032134366D03B
S31508000850002D60D002F036FF01F0AEF802F022FF5C
S3150800086094F85C30FF2B08BF84F85C7094F85D3010
S31508000870FF2B08BF84F85D7002F024FF694602A8C2
S3150800088001F08CFD002839D102F00CFF236D002BF6
S315080008904BD102F017FFDDE9002304F1300001F027
S315080008A035FC2046FFF7DCFC01F090F848B94FF01C
S315080008B0E0234FF08052C3F8042DBFF34F8FBFF3E8
S315080008C06F8F012502F0EEFE266D002EBCD0A26DBC
S315080008D052B1E168A36811449942E16024BF2168D6
S315080008E0E1604046FFF722FC2369013E26652BBBE3
S315080008F002F0E8FE012006B0BDE8F0812046FFF7C9
S31508000900AFFC01F063F802F0CDFE236D3BB102F0B7
S31508000910D9FE0125D6E702A801F034FD9AE702F0D0
S31508000920D1FE002006B0BDE8F08102F0CBFE2046DD
S31508000930FFF796FC012501F049F8C3E704F110001A
S3150800094001F042FC0028D3D04FF0E0234FF080524C
S31508000950C3F8042DBFF34F8FBFF36F8FC8E700BFEF
S31508000960F0B5044687B0CDE9002302F09BFE236D5F
S31508000970002635463746002B45D1DDE900321343BC
S3150800098079D0002D5BD002F09DFE01F015F802F03B
S3150800099089FE94F85C30FF2B08BF84F85C7094F8E5
S315080009A05D30FF2B08BF84F85D7002F08BFE694648
S315080009B002A801F0F3FC002832D102F073FE236D81
S315080009C0002B40D102F07EFE2368002B56D0DDE9CD
S315080009D0002304F1300001F099FB2046FFF740FCA4
S315080009E000F0F4FF48B94FF0E0234FF08052C3F807
S315080009F0042DBFF34F8FBFF36F8F012502F052FE10
S31508000A00236D002BB9D02268013B2365002A4FD0FD
S31508000A102369002B3BD102F055FE012007B0F0BD3B
S31508000A202046FFF71DFC00F0D1FF02F03BFE236DC8
S31508000A3093B902F047FE9EB9002007B0F0BD02A8A0
S31508000A4001F0A0FC9FE702F03DFE2046FFF708FCF8
S31508000A50012500F0BBFFD1E702F034FE0125CDE702
S31508000A6002F020FE216B19B1236C1968C1F105014A
S31508000A70A06801F0BDFD02F025FEDDE702F012FEDA
S31508000A80A06801F035FD064602F01CFE9FE704F15A
S31508000A90100001F099FB0028BDD04FF0E0234FF07D
S31508000AA08052C3F8042DBFF34F8FBFF36F8FB2E7A1
S31508000AB001F0F0FDA060ABE7F8B587680446164676
S31508000AC01D4601F0F7FC874205D032462B462046E4
S31508000AD0FFF746FF18B1E3680133E3600120F8BD6C
S31508000AE0F0B5044687B0CDE900230F4602F0DAFDDB
S31508000AF0236D00252E46002B42D1DDE90032134333
S31508000B0064D0002D5ED002F0DDFD00F055FF02F046
S31508000B10C9FD94F85C30FF2B08BF84F85C6094F834
S31508000B205D30FF2B08BF84F85D6002F0CBFD694697
S31508000B3002A801F033FC002837D102F0B3FD236D7B
S31508000B40002B48D102F0BEFDDDE9002304F1300098
S31508000B5001F0DCFA2046FFF783FB00F037FF48B9BF
S31508000B604FF0E0234FF08052C3F8042DBFF34F8FA8
S31508000B70BFF36F8F012502F095FD236D002BBCD0C6
S31508000B80A26DE5684AB1A368A9189942E16024BF35
S31508000B902168E1603846FFF7C9FA236BE5601BBB9D
S31508000BA002F090FD012007B0F0BD2046FFF758FB84
S31508000BB000F00CFF02F076FD236D3BB102F082FDDA
S31508000BC00125D8E702A801F0DDFB9CE702F07AFDD3
S31508000BD0002007B0F0BD02F075FD2046FFF740FB88
S31508000BE0012500F0F3FEC6E704F1300001F0ECFA47
S31508000BF00028D5D04FF0E0234FF08052C3F8042DDB
S31508000C00BFF34F8FBFF36F8FCAE700BF2DE9F041DF
S31508000C100446EFF311874FF0000383F31188BFF3FF
S31508000C206F8FBFF34F8F056D25B9284687F3118857
S31508000C30BDE8F08190F85C801646826D4FFA88F818
S31508000C4052B10846E168A36811449942E16024BF9D
S31508000C502168E160FFF76AFA013DB8F1FF3F2565B3
S31508000C6006D123697BB9012087F31188BDE8F08195
S31508000C7001F03CF88045F6D208F101084FFA88F8E9
S31508000C8084F85C80EFE704F1100001F09DFA002873
S31508000C90E9D0002EE7D001233360E4E770B50446B7
S31508000CA0EFF311854FF0000383F31188BFF36F8FBD
S31508000CB0BFF34F8F036D1BB9184685F3118870BDB6
S31508000CC0826DC6684AB1A3680846B1189942E160C0
S31508000CD024BF2168E160FFF729FAE660012085F361
S31508000CE0118870BD10B5044602F0DCFC246D02F0D4
S31508000CF0E9FC204610BD00BF10B5044602F0D2FC40
S31508000D00236D646DE41A02F0DDFC204610BD00BFB9
S31508000D10006D704790F85E3003B1704702F06EBE02
S31508000D20806D7047406D7047006DB0FA80F04009DD
S31508000D30704700BF036D406DC01AB0FA80F04009D5
S31508000D40704700BFF0B5044683B01D461746089E97
S31508000D5002F0A8FC94F85C10FF2904BF002384F86D
S31508000D605C3094F85D10FF2904BF002384F85D30D9
S31508000D7002F0A8FC216D29B1204603B0BDE8F04079
S31508000D80FFF76EBA04F1300000963A462B4601F09A
S31508000D90F1F9204603B0BDE8F040FFF761BA00BF9D
S31508000DA0421E6FF040439A4270B518D2044680003E
S31508000DB010F1690F13D8683002F0A2FD054678B124
S31508000DC000F16803002603600423C0E9154380F890
S31508000DD05E600121FFF792FA2E66284670BD00254F
S31508000DE0284670BD38B504460D4602F05BFC206EF9
S31508000DF020B1002402F066FC204638BD236D23B1DD
S31508000E00044602F05FFC204638BD2566012402F040
S31508000E1059FC204638BD00BF036E8B4201D0002026
S31508000E20704720B5056D82B015B1002002B020BD0F
S31508000E30019002F037FC0198056602F043FC012098
S31508000E40F4E700BF10B582B0002401A90194FFF7AA
S31508000E50EDFC019802B010BDF0B583B000230193F4
S31508000E60EFF311864FF0000383F31188BFF36F8FFA
S31508000E70BFF34F8F056D25B986F31188019803B026
S31508000E80F0BD90F85C70826D04467FB252B1C168BD
S31508000E90836811449942C16024BF0168C16001A8F2
S31508000EA0FFF744F9013D7B1C256507D12369002B13
S31508000EB0E2D004F1100001F087F9DDE700F016FF33
S31508000EC0B842D9D901377FB284F85C70D4E700BF3D
S31508000ED09FED077B00220023C0E9062300F10803E3
S31508000EE080ED027BC0E9043343600260704700BFAF
S31508000EF0FFFFFFFF0000000000234361704700BFAB
S31508000F00D0E9003210B4D4680133C1E90224A160E3
S31508000F10D1605DF8044B486103607047F0B4D1E9CD
S31508000F200056002E08BFB5F1FF3F13D000F10803A5
S31508000F301C469B68D3E90072BD4276EB0202F7D2E3
S31508000F4002688B600132D960CC60A1604861F0BC50
S31508000F50026070474469A368F2E700BF0346426926
S31508000F60D968806810B45468C160886010689C426B
S31508000F7008BF51600138002159615DF8044B1060C3
S31508000F80704700BF0368EBB170B5046900F1080546
S31508000F90A54212D04E1E2069314600F13F0300F1EA
S31508000FA0430E13F801CF11F8012F624502D132B171
S31508000FB07345F6D1A468A542EDD1002070BD00287E
S31508000FC0F8D070BD184670472DE9F041394C0546F2
S31508000FD002F068FB2368013323606368002B3CD06A
S31508000FE0D4F85021AB6B92B304F10806D4F8542117
S31508000FF00132C4F85421D4F858219A4204EB43121A
S3150800100038BFC4F85831D16806EB4316CF689368E1
S31508001010296105F108006F610133B860C860EE61A7
S31508001020936002F04FFBD4F8503173B16268AB6B32
S31508001030926B9A4209D24FF0E0234FF08052C3F8E0
S31508001040042DBFF34F8FBFF36F8FBDE8F081626841
S31508001050926B9A4298BF6560C6E765602368012B64
S3150800106003D0AB6B04F10806C0E704F1080637465F
S3150800107004F1A80838462037FFF72AFFB845F9D102
S315080010800D4F0E48FFF724FF3846FFF721FF07F1FB
S315080010902000FFF71DFF07F14000FFF719FF07F1D2
S315080010A06000FFF715FFC4F84881AB6BC4F84C71B4
S315080010B09CE700BFF8E80120C0E90120A0E901206B
S315080010C02DE9F04F2D4C0646D4E958899346D4F8B5
S315080010D04871D4F84C316268606883B04FF0000AF2
S315080010E00D46083082F856A00193FFF737FF55459D
S315080010F008BFB6F1FF3F24D018EB060662686168A0
S3150800110059EB05054FF00003B046A94628BF012351
S31508001110C2E9028973B938460831FFF7FFFED4E9F8
S315080011205A23964275EB030338BFC4E95A8903B0BC
S31508001130BDE8F08F0198083103B0BDE8F04FFFF71E
S31508001140EDBEBBF1000FD7D06168D4F82C316268C8
S31508001150DD680B616168D4F8280155610831626859
S31508001160A96001306168C4F82801083204F594744E
S31508001170DA60CC6103B0BDE8F08F00BFF8E8012063
S315080011802DE9F8430546194C02F08CFA6F6BD4F832
S315080011904881EE69D4F84C9102F094FA04F1E80318
S315080011A09F4214D046450FD04E450DD004F5947392
S315080011B09E420FD004F58474A64215D0002E0CBFAB
S315080011C004200120BDE8F8830220BDE8F883012049
S315080011D0BDE8F8836B6B002BF6D195F85430012BDC
S315080011E00CBF02200320EDE70420EBE7F8E8012016
S315080011F02DE9F0470A9C089DDDF8249096003246B2
S3150800120007468A46E06BA5219846FEF799FFE36BE9
S31508001210043E1E4426F00706BAF1000F0FD00AF165
S31508001220FF3304F13F010AF1030A13F8012F01F80D
S31508001230012F0AB15345F8D1002384F84330042D11
S3150800124028BF0425A563656404F10800FFF754FE6A
S3150800125004F12000FFF750FED5F1050563EB030303
S315080012602562A4612463424639463046636202F029
S31508001270F3F92060B9F1000F01D0C9F80040BDE8C4
S31508001280F08700BF38B5154CD4F87031F3B102F0C9
S3150800129009FAD4F818311D6905F10800FFF75EFE52
S315080012A02368013B2360D4F87031013BC4F87031E0
S315080012B002F008FA95F855304BB1012BE4D12846CF
S315080012C002F09CFBD4F87031002BE0D138BDE86BF6
S315080012D002F094FB284602F091FBD5E7F8E80120D6
S315080012E02DE9F0475B4AD2E9580182B00023002471
S315080012F0CDE90034431C009341F100030193DDE975
S31508001300000103460C46C2E958340B437CD0D2E9A7
S315080013105A01DDE9004584422B468B4160D3D2F859
S3150800132048311B68002B00F086804FF0000CDFF870
S315080013302881E64641E0D3E90407DE69C760B8605C
S3150800134070688842306808BF77600138C3F81CE0C7
S3150800135030605E6B66B1D3E90A07C760B86070682B
S315080013604845306808BF77600138C3F834E0306014
S31508001370986BD2F8587102EB4016B842F768B46811
S31508001380D7F80C901F61C3F8149088BFC2F85801AB
S31508001390C9F80810F96008EB4011D96104F1010A8F
S315080013A05168D2F84831C6F808A0896B1B6888428C
S315080013B088BF4CF0010C002B3ED0D2F848311B698F
S315080013C01B69DDE90045D3E902672846B442B841FE
S315080013D003F1080103F12009ADD2C2E95A6701E019
S315080013E04FF0000C5168D2F87831896B02EB411244
S315080013F09068012898BF002B14BF0120002040EAFE
S315080014000C0002B0BDE8F087D2F84831D2F84C118A
S31508001410C2F84811C2F84C31D2F874310133C2F817
S315080014207431D2F848311B6863B94FF0FF30002198
S31508001430C2E95A016BE79C464FF0FF300021C2E92A
S315080014405A01CFE7D2F848311B69D3E90001C2E94E
S315080014505A015CE7F8E8012000E901202DE9F0438C
S3150800146087B00F46109C0F9D002105910CB3E5B17E
S3150800147006469046204658229946FEF761FEE563E1
S315080014800E9B00930225029484F8555005AD4B46F1
S315080014904246394630460195FFF7AAFE2046FFF731
S315080014A093FD059807B0BDE8F083284607B0BDE868
S315080014B0F083204607B0BDE8F08300BF2DE9F0436E
S315080014C0074685B0900016468846994602F018FAEF
S315080014D0F8B10546582002F013FA0446B0B158226E
S315080014E00021FEF72DFE0D9AE56301920C9A0092F3
S315080014F04B463246414638460294FFF779FE204667
S31508001500FFF762FD012005B0BDE8F083284602F02A
S3150800151075FA4FF0FF3005B0BDE8F08370B50546A3
S31508001520334C02F0BFF8002D50D005F108063046BE
S31508001530FFF714FD6B6B1BB105F12000FFF70EFDDD
S31508001540D4F8543162680133AA42C4F85431D4F845
S3150800155050312DD02368013B2360D4F848311B68ED
S31508001560A3B1D4F848311B69D3E90023C4E95A2347
S3150800157002F0A8F895F855309BB1012B33D0D4F872
S31508001580503113B16368AB4222D070BD00234FF0CF
S31508001590FF32C4E95A2302F095F895F85530002B26
S315080015A0EBD1E86B02F02AFA284602F027FAE6E7BA
S315080015B0002BCFD00F483146FFF7A2FCD4F8703184
S315080015C00133C4F8703102F07DF8D8E76568ACE7F6
S315080015D04FF0E0234FF08052C3F8042DBFF34F8F2E
S315080015E0BFF36F8F70BD284602F008FAC7E700BF41
S315080015F0F8E8012000EA0120034B5B68834200D02B
S31508001600BEE50020704700BFF8E8012010B5044683
S3150800161002F048F824B1A46B02F054F8204610BD35
S31508001620034B5C68A46B02F04DF8204610BD00BF62
S31508001630F8E80120EFF311834FF0000282F31188D6
S31508001640BFF36F8FBFF34F8F18B1806B83F3118889
S315080016507047034A5068806B83F31188704700BF50
S31508001660F8E8012010B5044602F01CF824B1646CB1
S3150800167002F028F8204610BD034B5C68646C02F043
S3150800168021F8204610BD00BFF8E80120EFF31183CA
S315080016904FF0000282F31188BFF36F8FBFF34F8FAD
S315080016A018B1406C83F311887047034A5068406C40
S315080016B083F31188704700BFF8E8012004292DE953
S315080016C0F04128BF042104460D4601F0EBFF002C2B
S315080016D038D0626C954227D02B4F29D87E68361BA6
S315080016E0B6FA86F67609A36B9A4201D09D4200D9CE
S315080016F0A563626A6564002A05DBD5F1050562EB18
S31508001700020225626262214DE26905EB43139A42A1
S315080017101BD04EB14FF0E0234FF08052C3F8042D92
S31508001720BFF34F8FBFF36F8FBDE8F04101F0CABF1B
S315080017307B68A34226D07B689E6BAE422CBF0026F0
S315080017400126D0E7104B5C68C3E704F10808404659
S31508001750FFF704FCA36BD7F85821934288BFC7F854
S31508001760583107EB431705EB4315FA68BB68D16890
S31508001770226101336161C1F80880C2F80C80E56115
S31508001780BB60C6E70026AEE7F8E8012000E90120BD
S31508001790F8B5244D6B6883420CD0044650B101F06D
S315080017A081FFE26905F594739A4204D0BDE8F840D2
S315080017B001F088BFF8BD636B05F1E8029342F5D0E6
S315080017C0002BF3D194F85430012BEFD004F108061E
S315080017D03046FFF7C3FBA36BD5F85821124893424E
S315080017E088BFC5F8583105EB43126968D568D1F842
S315080017F038C09168EF682561013100EB43106345F5
S315080018006761BE60EE60E0619160CFD94FF0E0237A
S315080018104FF08052C3F8042DBFF34F8FBFF36F8F7D
S31508001820C4E700BFF8E8012000E901202DE9F041EE
S31508001830EFF311874FF0000383F31188BFF36F8F1F
S31508001840BFF34F8F254DC26905F594739A4205D0AB
S31508001850002687F311883046BDE8F081436B0446BD
S3150800186005F1E8008342F3D0002BF1D194F8543007
S31508001870012BEDD0D5F87C6156BB6B68A26B9B6BD0
S3150800188004F108089A4288BF0126404688BFC5F871
S315080018907861FFF763FBA36BD5F85821934288BF9D
S315080018A0C5F8583105EB43150D4AE968216102EB85
S315080018B04312AB68C86860610133C0F80880C1F894
S315080018C00C80E261AB6087F311883046BDE8F08191
S315080018D004F12001FFF714FBBAE700BFF8E801207E
S315080018E000E9012070B5214C214B002504F5C0768E
S315080018F086B0582229463046CDE90435FEF720FC45
S3150800190005AB0193022104F5EC73C4F8BC31194800
S3150800191002962B468022009584F8D51104A9FFF774
S3150800192067FC3046FFF750FB059BC4F8D8331BB15C
S3150800193001F05EFB012803D00F4B1B6806B070BD93
S315080019404FF0000383F31188BFF36F8FBFF34F8FF8
S315080019504FF0FF320023C4E95A2300220023C4F8BB
S315080019605001C4E9582301F097FFE5E7F8E801209C
S3150800197049444C450D1C0008803B000810B50D4C29
S3150800198001F0DCFBFFF7CAFDD4F8D803FFF7C6FD64
S31508001990FFF778FC4FF0000383F31188BFF36F8FCE
S315080019A0BFF34F8F0023C4F85031BDE8104001F053
S315080019B077BE00BFF8E80120034AD2F87C3101332C
S315080019C0C2F87C31704700BFF8E801202DE9F047DE
S315080019D05C4C82B001F066FED4F87C31013BC4F859
S315080019E07C31D4F87CE1BEF1000F40F08A80236890
S315080019F0002B00F08680D4F8E830002B52D004F192
S31508001A0008084FF001097746D4F8F8301B695A6B75
S31508001A10D3E90A015668C16003F12005AE42886021
S31508001A2008BF516011685F6301391160D969D4F83C
S31508001A3058C14D68D3E9040203F10806B542C260ED
S31508001A40906008BF4A609A6B0D6804EB42106245C5
S31508001A5005F1FF350D6088BFC4F85821C56861686F
S31508001A60D5F80CC0D1F838E0816808EB421AC3E90A
S31508001A70045CCCF80860EE60C3F81CA0D4F8E83023
S31508001A8001317245816088BFC4F87891002BBBD1BB
S31508001A90D4F848311B68002B4CD14FF0FF32002395
S31508001AA0C4E95A23D4E9F86756EA070326D001257C
S31508001AB00CE0FFF715FC08B1C4F87851721E47F11F
S31508001AC0FF331F4652EA0703164613D0D4F87C3173
S31508001AD0002BEED0D4E9F82312F1010843F10009EE
S31508001AE0721E47F1FF331F4652EA0703C4E9F88915
S31508001AF01646EBD100220023C4E9F823D4F878313E
S31508001B0033B901F0DFFD0024204602B0BDE8F087B6
S31508001B104FF0E0234FF080526168C3F8042DBFF3FD
S31508001B204F8FBFF36F8F01F0CDFD0124204602B021
S31508001B30BDE8F087D4F848311B69D3E90023C4E926
S31508001B405A23AFE7F8E801201F49D0B5D1F87C4100
S31508001B5001348446C1F87C41D1E95867D0E900418F
S31508001B60A2184B414FF0000E704628BF4FF0010EE9
S31508001B70A64277EB010114D250EA0E0014D1CCE943
S31508001B8000230024FFF722FF48B94FF0E0234FF067
S31508001B908052C3F8042DBFF34F8FBFF36F8F2046D3
S31508001BA0D0BD50EA0E0003D1964277EB0301E6D288
S31508001BB0901BCCF8002063EB0701CCF80430002218
S31508001BC0FFF77EFA0124DDE7F8E8012008B550EAB8
S31508001BD001030AD14FF0E0234FF08052C3F8042DD9
S31508001BE0BFF34F8FBFF36F8F08BD074AD2F87C311A
S31508001BF00133C2F87C310022FFF762FAFFF7E6FEEE
S31508001C000028E7D008BD00BFF8E801202DE978488C
S31508001C10254C4FF0E0264FF08055FFF733FBA368BD
S31508001C20012B05D9C6F8045DBFF34F8FBFF36F8F3D
S31508001C30D4F85831F3B963689B6B002BEDD1A368D0
S31508001C40012BEAD8D4E95A01D4E958BCB0EB0B0207
S31508001C5061EB0C03022A73F10003DED3D4F87C315E
S31508001C600133C4F87C31D4F858312BB16368FFF7D7
S31508001C70ADFED2E76368D0E763689B6B002BF6D1AD
S31508001C80A368012BF3D8D4E95A01D4E95823B0EB59
S31508001C90020C61EB0301BCF1020F71F10003E6D3FC
S31508001CA0604601F05FFDE2E7F8E8012038B501F08B
S31508001CB0F9FC044BD3E9584501F004FD20462946B2
S31508001CC038BD00BFF8E80120EFF311834FF000029A
S31508001CD082F31188BFF36F8FBFF34F8F024AD2E9A1
S31508001CE0580183F311887047F8E80120014B1868FA
S31508001CF0704700BFF8E8012008B140307047024B32
S31508001D0058684030704700BFF8E801202DE9F041D7
S31508001D10204FD7F87C3101330646C7F87C3107F1E6
S31508001D20880531462846FFF72DF907F108080446C5
S31508001D30A5F1200358B945450ED01D46314628461B
S31508001D40FFF720F9A5F1200304460028F3D0FFF792
S31508001D503DFE2046BDE8F081D7F848013146FFF739
S31508001D6011F904460028F2D1D7F84C013146FFF79D
S31508001D7009F904460028EAD107483146FFF702F96F
S31508001D8004460028E3D105483146FFF7FBF8044628
S31508001D90DDE700BFF8E8012020EA012000EA01207B
S31508001DA090B190F85530022B09D0012B01D00020B4
S31508001DB07047C06B08600023136001207047C36B2F
S31508001DC00B60106001207047014B5868E9E700BFB7
S31508001DD0F8E80120014BD3F8D8037047F8E801204A
S31508001DE0024B03EB8003D3F8D8037047F8E80120C9
S31508001DF070B5164DD5E95823044610180E4641EB22
S31508001E000301D5E95A238B4208BF824207D0D5E998
S31508001E105823101946EB0301C5E9580170BD01F0B6
S31508001E2041FCD5E9F823501C43F10001C5E9F80146
S31508001E3001F048FCD5E95823013C66F10006101963
S31508001E4046EB0301C5E9580170BD00BFF8E801205B
S31508001E5070B50B4CD4F87C31013305460E46C4F8F0
S31508001E607C3101F01FFCD4E9F823501946EB030135
S31508001E70C4E9F80101F026FCBDE87040FFF7A6BDED
S31508001E80F8E80120F8B5244DD5F87C310133C5F8BA
S31508001E907C316B68984204D00446FFF771F9022832
S31508001EA004D00024FFF792FD2046F8BD04F1080689
S31508001EB03046FFF753F801F0F5FB636B33B104F1D5
S31508001EC02000FFF74BF8012384F8563001F0FAFB9F
S31508001ED0A36BD5F858211148934288BFC5F85831E5
S31508001EE005EB43126968D768D1F838E09168D7F8E6
S31508001EF00CC02761013100EB43107345C4F814C0C8
S31508001F00CCF80860FE60E061916002D90123C5F84B
S31508001F1078310124C6E700BFF8E8012000E901206E
S31508001F20084BD3F87C210AB9FFF7DAB930B4D3E9FC
S31508001F30F801441C41F10005C3E9F845002030BC0E
S31508001F40704700BFF8E8012038B50D4638B1044699
S31508001F5001F0A8FBE564BDE8384001F0B3BB044BCB
S31508001F605C6801F09FFBE564BDE8384001F0AABB58
S31508001F70F8E8012010B538B1044601F093FBE46C8B
S31508001F8001F0A0FB204610BD044B5C6801F08AFBFB
S31508001F90E46C01F097FB204610BD00BFF8E801206D
S31508001FA068B1EFF311834FF0000282F31188BFF393
S31508001FB06F8FBFF34F8FC06C83F311887047014B47
S31508001FC05868EEE7F8E801200346084613B1DB6CCB
S31508001FD02BB11847034B5B68DB6C002BF9D118460D
S31508001FE0704700BFF8E80120194AD2F87C311BB1C6
S31508001FF00123C2F87831704710B4C2F87831D2F8A4
S31508002000583102EB431059018068E8B902F108001B
S31508002010013B59014458002CFAD002EB010C083157
S315080020200844DCF80C105DF8044B8968CCF80C10F1
S31508002030814204BFDCF81810CCF80C10096951600D
S31508002040C2F858315368704702F10800E5E700BF47
S31508002050F8E8012070B504462A4E01F023FB002C4F
S3150800206038D004F108052846FEF778FF636B1BB1E4
S3150800207004F12000FEF772FF23482946FEF740FFC9
S3150800208094F85430012B04BF002384F8543001F02F
S3150800209019FBD6F850316BB97368A34200D070BDEE
S315080020A0D6F85031F3B93168D6F82821914224D1AF
S315080020B0736070BD01F0F6FAD6F848311B685BB15B
S315080020C0D6F848311B69D3E90023C6E95A2301F03B
S315080020D0F9FAE1E77468C4E74FF0FF320023C6E96E
S315080020E05A23F4E74FF0E0234FF08052C3F8042D4B
S315080020F0BFF34F8FBFF36F8F70BDBDE87040FFF71A
S3150800210073BF00BFF8E8012020EA012038B5074967
S31508002110496815461C462031FEF700FF2846214629
S315080021200122BDE83840FEF7CBBF00BFF8E8012022
S315080021300F49F0B40446486843F0004302626268F7
S3150800214043624B684F689A6248684B684E68D56820
S3150800215003F120012368FD6220300133A860D160B5
S315080021607463DDE9040123600122F0BCFEF7A8BF11
S31508002170F8E801202DE9F041124D4668DDF818C04F
S31508002180044610466A68D5F804806F6819462368BD
S3150800219096626A68D5F804E0F568C8F82C500133E9
S315080021A020372032AF60F260CEF834402360BCF1AD
S315080021B0000F02D04FF0FF300021BDE8F041624623
S315080021C0FEF77EBFF8E8012003691B69D3E90A0216
S315080021D0596BF0B4C2609060486803F12004A042CD
S315080021E0086808BF4A602D4A013800255D63086003
S315080021F0D2F87C01996B78BBD3E90454D869EC60B2
S31508002200A560456803F10807BD4208BF4460046835
S31508002210234D013C0460D2F85801884202EB411074
S3150800222038BFC2F85811C6688468D6F80CC01E6153
S3150800223005EB4115C3F814C00134CCF80870F760F3
S31508002240DD61D2F8483184601B68FBB94FF0FF3472
S315080022500025C2E95A450EE0D2F8E850D2F8EC005B
S3150800226098620135C2F8E850C568DD62AC60C460A2
S3150800227002F1E800586353689B6B8B4234BF012018
S315080022800020F0BC38BFC2F878017047D2F8483150
S315080022901B69D3E90045C2E95A45ECE7F8E801208D
S315080022A000E9012043F00043F0B5C0E90023D0E976
S315080022B0032341698468E26094604C68844208BFDD
S315080022C04A600C68244A00254561013CD2F8485109
S315080022D00C602968002936D14FF0FF300021C2E989
S315080022E05A01D3E90440D969E06084604C681B4D03
S315080022F003F10807BC4208BF48600868013808604F
S31508002300996BD2F85801814288BFC2F8581102EB7E
S3150800231041105468C668D4F838E0D6F80CC084680A
S315080023201E61714505EB4115C3F814C004F101049B
S31508002330CCF80870F760DD6188BF0123846088BF28
S31508002340C2F87831F0BDD2F848110969D1E900011F
S31508002350C2E95A01C5E700BFF8E8012000E90120F3
S3150800236010B5044601F09EF9054BD3F874112160A7
S31508002370D3E95823C4E90223BDE8104001F0A2B905
S31508002380F8E80120044BD3F87421026093ED587BDA
S3150800239080ED027B704700BFF8E801202DE9F8437D
S315080023A005460C4601F07EF9224BD3E958675A6870
S315080023B092F856204AB15B68002283F85620012419
S315080023C001F080F92046BDE8F883D4E900909042F0
S315080023D008BFB9F1FF3F27D0D3F874212968914285
S315080023E0D5E902CE08D0664577EB0E0204D3002263
S315080023F00023C4E90023E2E7B6EB0C0867EB0E02FC
S31508002400C8458241F3D2B9EB060160EB070011EB30
S315080024100C012160D3F87411D3E958234EEB000060
S315080024206060C5E902232960002401F04BF92046C3
S31508002430BDE8F883F8E80120024B0122C3F87821A9
S31508002440704700BFF8E801200C4BD3F8E80018B92C
S31508002450D3F8782112B1704700207047D3E9F80104
S31508002460084301D0104670471A68D3F82801531E4E
S3150800247098420CBF02200120704700BFF8E80120EF
S3150800248070B1C06B0378A52B10D103469C4613F890
S31508002490012FA52AFAD0C0F10100604480087047D0
S315080024A0034B5868C06B0378A52BEED00020704705
S315080024B0F8E80120014B5868704700BFF8E801208A
S315080024C010B9024B5868704700207047F8E8012099
S315080024D0064BD3F8502132B1D3F87C01B0FA80F01C
S315080024E04009400070470120704700BFF8E8012006
S315080024F0F8B50446D0B1204D836B6A68926B934257
S3150800250015D2426A002A07DB6A68926BD2F1050285
S3150800251061EB0101C0E90821184EE26906EB431395
S315080025209A420CD06B689B6BA3630120F8BD6B685D
S31508002530406C9B6B98422CBF00200120F8BD04F12B
S3150800254008073846FEF70AFD6B68D5F858219B6BD5
S31508002550A363934288BFC5F8583105EB431506EBCC
S315080025604316EA68AB68D1682261013361618F60FE
S31508002570D760E661AB60D8E7F8E8012000E90120FA
S3150800258058B1836C816B426C013B914270B504462D
S31508002590836400D01BB1002070BD0020704700F195
S315080025A008063046FEF7DAFC626C0F48A263D2F1E1
S315080025B0050323620D4B61EB01016162D3F85811E3
S315080025C08A4288BFC3F8582103EB421300EB421234
S315080025D0DD689968E8686061013125618660EE60AA
S315080025E00120E261996070BD00E90120F8E8012048
S315080025F060B1426CF8B59142836B38BF11468B4285
S31508002600044602D0826C012A01D0F8BD7047426A9E
S315080026108163002A05DBD1F1050162EB0202C0E9FC
S315080026200812114DE26905F1080606EB43139A42B2
S31508002630EBD104F108073846FEF790FCA36BD5F8F2
S315080026405821934288BFC5F8583105EB431506EB68
S315080026504316EA68AB68D1682261013361618F600D
S31508002660D760E661AB60F8BDF8E80120084A516812
S31508002670536852689B6BD3F1050310B464EB0404EA
S31508002680D1E90801C2E908345DF8044B704700BF78
S31508002690F8E80120034B586810B1836C0133836452
S315080026A0704700BFF8E801202DE9F0472A4D0F468C
S315080026B000F11406696851F82610044621B99846AF
S315080026C052EA080391461BD100F0ECFF6B6853F8F9
S315080026D02680B8F1000F04D06B6867B1002243F872
S315080026E026206B682344002283F8542000F0EAFF72
S315080026F04046BDE8F08708F1FF3243F82620F0E7A8
S31508002700D5F87C310133C5F87C3100F0CBFF6B6816
S3150800271053F8263023B100F0D5FFFFF757F9D3E772
S315080027206B6823444FF0010A83F854A000F0CAFFEF
S31508002730524648464146FEF7C3FCFFF747F90028CC
S31508002740C2D14FF0E0234FF08052C3F8042DBFF3F7
S315080027504F8FBFF36F8FB7E7F8E801202DE9F84FE1
S31508002760344DDDF82880DDF82CA01E466B6803443E
S31508002770044693F85430022B174602D058EA0A0347
S3150800278019D100F08FFF2EB16B6804F1140253F8CB
S31508002790223033606B68234493F85430022B3BD0C5
S315080027A000266B682344002283F8542000F08AFF31
S315080027B03046BDE8F88FD5F87C3101338946C5F82F
S315080027C07C3100F06FFF6B68234493F85430022B7A
S315080027D02BD06B6803EB84034FF0010B196D21EACC
S315080027E0090119656B68234483F854B000F06AFF41
S315080027F05A4640465146FEF763FCFFF7E7F80028BD
S31508002800BFD14FF0E0234FF08052C3F8042DBFF339
S315080028104F8FBFF36F8FB4E76B6803EB8403012612
S315080028201A6D22EA07021A65BBE700F04BFFFFF7AD
S31508002830CDF8A6E7F8E801202DE9F041DDF8188083
S3150800284004460D4617461E4600F02CFFB8F1000F49
S3150800285005D005F1140354F82330C8F8003061197F
S31508002860022091F8542081F85400731ED2B2032B2B
S3150800287008D8DFE803F0590F0402022A60D014359D
S3150800288044F82570012A0DD0012400F01BFF2046CC
S31508002890BDE8F08104EB8505012A2B6D03F10103E0
S315080028A02B65F1D1D4E90413E269CB6099605168CC
S315080028B0244D04F10807B942116808BF5360224B3A
S315080028C001391160A26BD3F858118A4203EB421101
S315080028D088BFC3F85821CE688868D6F80CC0266128
S315080028E005EB42150130C4F814C0CCF80870F7603F
S315080028F0E5618860D3F848110968D9B1D3F8481159
S315080029000969D1E90001C3E95A015B689B6B9A42E0
S31508002910BAD94FF0E0234FF08052C3F8042DBFF325
S315080029204F8FBFF36F8FAFE704EB85052B6D3B43E6
S315080029302B65A7E74FF0FF300021C3E95A01E4E70A
S315080029400024A2E700E90120F8E80120F0B5059C7B
S31508002950EFF311854FF0000686F31188BFF36F8FEA
S31508002960BFF34F8F24B101F1140650F82660266094
S3150800297000EB010C4FF0020E9CF854408CF854E022
S31508002980013B5FFA84FC032B09D8DFE803F03B0F11
S315080029900502BCF1020F6CD0143140F82120BCF1BD
S315080029A0010F0CD0012085F31188F0BD00EB8101E1
S315080029B0BCF1010F0B6D03F101030B65F2D1324B2C
S315080029C0826BD3F87C1119B3D3F8EC10D3F8E8402E
S315080029D0CE6881620134C3F8E84000F12004C6627B
S315080029E0B460CC6003F1E80141635968896B914290
S315080029F0D8D2069A12B1069901220A600122C3F8B2
S31508002A007821CFE700EB81010B6D13430B65C6E711
S31508002A10D0E90464C169F460A6604E6800F1080C48
S31508002A20664508BF4C600C68184E013C0C60D3F82C
S31508002A305811914203EB421138BFC3F85821CF68A9
S31508002A408C68D7F80CE0076106EB42160134C0F82B
S31508002A5014E0CEF808C0C7F80CC0C6618C60D3F87D
S31508002A604811096839B94FF0FF300021C3E95A0106
S31508002A70BBE7002097E7D3F848110969D1E90001B7
S31508002A80C3E95A01B1E700BFF8E8012000E90120CF
S31508002A902DE9F041EFF3118C4FF0000383F3118811
S31508002AA0BFF36F8FBFF34F8F4318022400EB8101EA
S31508002AB093F854E083F854400B6DBEF1010F03F10F
S31508002AC001030B6503D08CF31188BDE8F0812E4B0A
S31508002AD0816BD3F87C41F4B1D3F8EC40D3F8E850D5
S31508002AE0E66884620135C3F8E85000F12005C6623D
S31508002AF0B560E56003F1E80444635868806B884272
S31508002B00E1D20AB1012111600122C3F878218CF3C0
S31508002B101188BDE8F081D0E90456C469EE60B56055
S31508002B20656800F1080E7545256808BF6660013DB1
S31508002B302560D3F85841154E8C4203EB411438BF33
S31508002B40C3F85811E768A568D7F80C80076106EB43
S31508002B504116C0F814800135C8F808E0C7F80CE03B
S31508002B60C661D3F84801A560006828B94FF0FF345C
S31508002B700025C3E95A45C0E7D3F848010069D0E9FA
S31508002B800045C3E95A45B8E7F8E8012000E90120FD
S31508002B9038B50D4680B104462C4400F083FD94F800
S31508002BA05430022B05BF002384F854300024012436
S31508002BB000F088FD204638BD014B5C68ECE700BF95
S31508002BC0F8E8012070B50E46154668B1044600F0CF
S31508002BD069FD04EB86010C6D0B6D23EA05030B6595
S31508002BE000F070FD204670BD014B5C68EFE700BF42
S31508002BF0F8E80120064B10B403F5C074046003F529
S31508002C00EC7380200B605DF8044B1060704700BFC2
S31508002C10F8E80120064B10B403F57A74046003F54E
S31508002C20886380200B605DF8044B1060704700BF16
S31508002C30F8E801200D4B0022002000215A60C3F855
S31508002C405421C3F870211A60C3E95801C3F8582102
S31508002C50C3F85021C3E9F801C3F87821C3F87421F1
S31508002C60C3E95A01C3F87C21704700BFF8E8012080
S31508002C70F0B5134C83B000F015FD256825B103B0F7
S31508002C80BDE8F04000F01EBD04F10807384604F11F
S31508002C902806FEF71DF93046FEF71AF900951821A1
S31508002CA0C4E9127604F1500304F1B8020A20FDF7CC
S31508002CB067FB206003B0BDE8F04000F003BD00BF2D
S31508002CC038EF01202DE9F0470446DDE908780AE0E7
S31508002CD0BA1A68EB03038A4273EB0E0325D3E36A39
S31508002CE098472A463346D4E9081E8D185EEB030634
S31508002CF04FF00009CC4628BF4FF00109AF4278EBE8
S31508002D00060AC4E902562046A461E1D2974278EB46
S31508002D10030302D259EA0C0CE1D0084B04F108016E
S31508002D20986CBDE8F047FEF7F9B8044B04F10801C2
S31508002D30D86CBDE8F047FEF7F1B800BF38EF0120C0
S31508002D402DE9F041114CA46C2469246982B0064629
S31508002D5004F108000D4690461F46FEF7FFF894F862
S31508002D6030C01CF0040F09D12CF0010C84F830C0D7
S31508002D70E36A204602B0BDE8F0411847CDE900876E
S31508002D8032462B462046FFF79DFFF1E738EF012034
S31508002D902DE9F04F954C8BB00026A36C1D68002DCD
S31508002DA000F0E8801B69D3E90059FEF705FEFEF737
S31508002DB07DFF0746D4E96A02874271EB020288461C
S31508002DC056D3AF4271EB0903C4E96A7180F0F88003
S31508002DD00021EA1B69EB080320680091FDF7B2FFA2
S31508002DE0FEF7F4FD48B94FF0E0234FF08052C3F8E0
S31508002DF0042DBFF34F8FBFF36F8FCDE90466CDE97E
S31508002E000666CDE9086620680022002304A9FDF7B6
S31508002E100DFD0028C1D0049B002BC0F2A280089D9E
S31508002E20EB691BB105F10800FEF798F8FEF73EFFBF
S31508002E30D4E96A23904271EB0303074688462CD3EC
S31508002E40049BC4F8A871013BC4F8AC81082BDAD8F6
S31508002E50DFE803F02B2B77597E2B2B77590029694E
S31508002E604FF0FF32D1E900014FF0FF33FFF768FF5B
S31508002E70A56C2B68002BF2D1E36CC4E96A78C4E927
S31508002E801235FEF7A3FDB8E719694FF0FF32D1E90D
S31508002E9000014FF0FF33FFF753FFA36C1A68002AAF
S31508002EA0F2D1E26CC4E91223CAE795F830E0069934
S31508002EB02A6A07986B6AAD6111EB020A4EF0010C9B
S31508002EC050EB030985F830C04FF0000CE34628BFE5
S31508002ED04FF0010C5745CDF80CC078EB090CC5E945
S31508002EE002A95FD3791A68EB00009142984122D370
S31508002EF01EF0040F71D12EF0010E85F830E0EB6A52
S31508002F00284698477FE7DDE9063095F83010AD6129
S31508002F1013EB070C40EB08026745C5E902C241F00E
S31508002F20010178EB0202C5E9083085F8301041D373
S31508002F3003433FF468AFE06C05F10801FDF7EEFFC7
S31508002F4061E795F8303023F0010385F830305AE709
S31508002F5095F830309A073CD523F0010385F83030D0
S31508002F6051E7069BDDE907019847049B002BFFF60E
S31508002F704AAF54E7FEF720FDFEF798FED4E96A2328
S31508002F80904271EB030307468846FFF471AFE36C82
S31508002F90C4F8A8711968C4F8AC81B1FA81F1490975
S31508002FA0A94616E78F4278EB000003D2039B53EA43
S31508002FB00B0C9DD0A06C05F10801FDF7AFFF22E7C9
S31508002FC0FEF704FD3A46434628464946FFF7B8FE4B
S31508002FD013E7284600F012FD15E7CDE900785246BA
S31508002FE04B462846FFF76EFE89E700BF38EF0120FB
S31508002FF030B5104C89B0FFF73BFE2068C0B10025FC
S3150800300007AA06A905A8CDE90555FFF703FE059AFF
S3150800301002920423069A019200930749079A0748E1
S315080030202B46FEF71BFAC4F8B001401B18BF012057
S3150800303009B030BD38EF0120783B0008912D000813
S31508003040F8B50746382016461D4600F059FC0446D2
S31508003050B8B1002380F83030FFF70AFE079BA36259
S31508003060089BE362C4E90865276004F10800FDF7D8
S3150800307043FF069B2BB194F8303043F0040384F8E1
S3150800308030302046F8BD00BFF8B5099CD4B11D46BE
S31508003090022384F8303007461646FFF7E9FD079BFA
S315080030A0A362089BE362C4E90865276004F1080087
S315080030B0FDF722FF069B2BB194F8303043F004034A
S315080030C084F830302046F8BD30B50F4C256889B0F5
S315080030D02DB10529CDE904230291069002DD0020D1
S315080030E009B030BDFFF7F4F9246802284FF0000351
S315080030F0009316BF0022DDE90E23002302A920460D
S31508003100FDF7F8F909B030BD38EF012010B50A4CC3
S31508003110246886B02CB10529CDE9022300910490D4
S3150800312002DC002006B010BD089A00236946204636
S31508003130FDF7F0FA06B010BD38EF0120014BD3F8C1
S31508003140B001704738EF0120D0E90801704700BF89
S3150800315038B504460D4600F0A5FA94F830303DB16E
S3150800316043F0040384F83030BDE8384000F0AABACA
S3150800317003F0FB0384F83030BDE8384000F0A2BA0B
S3150800318010B5044600F08EFA94F83040C4F3800473
S3150800319000F098FA204610BD10B5044600F082FAF1
S315080031A094F83040C4F3800400F08CFA204610BD31
S315080031B0D0E90201704700BF90F8303013F00203DF
S315080031C01ABF086001201846704700BF006870479C
S315080031D010B5044600F066FA94F8304004F001048D
S315080031E000F070FA204610BD10B5044600F05AFAF1
S315080031F0A46A00F067FA204610BD00BF38B5044639
S315080032000D4600F04FFAA562BDE8384000F05ABAFC
S3150800321030B5144687B01A46064B029003911868D3
S3150800322004946FF00105002369460095FDF772FACC
S3150800323007B030BD38EF012070B588B0094D069249
S31508003240002604460B4600964FF0FF31CDE90443AD
S315080032500291DDE90C23286802A9FDF74BF908B0AD
S3150800326070BD00BF38EF0120024B00221A60C3F878
S31508003270B021704738EF012010B5044640B100234D
S315080032800022E0E80223FDF723FE012384F8283014
S31508003290204610BD10B5302000F032FB044640B180
S315080032A000230022E0E80223FDF712FE002384F83B
S315080032B02830204610BD00BF2DE9F04B82B00646E7
S315080032C091469846DDF830B00D9DFEF775FBD6E9B8
S315080032D000740B9907EA090304EA080289B913433B
S315080032E040D00A9B002B40D027EA090224EA0803AB
S315080032F0C6E90023FEF76AFB3846214602B0BDE858
S31508003300F08B904508BF9945EBD05BEA05032CD0B6
S315080033100A9B003B18BF01231B0643F0806343EA60
S3150800332008034A4606F10800CDE900B5FEF700FF96
S31508003330FEF74CFB48B94FF0E0234FF08052C3F834
S31508003340042DBFF34F8FBFF36F8FFFF78FF98B01F4
S3150800335007460C4616D524F07F443846214602B067
S31508003360BDE8F08B5BEA050306D1FEF72FFB38466E
S31508003370214602B0BDE8F08B0A9B003B18BF01232B
S315080033801B06CCE700F08EF9D6E900740B9909EA1A
S31508003390070308EA040261B9134307D00A9B2BB155
S315080033A027EA090224EA0803C6E9002300F08AF995
S315080033B0D1E7424508BF4B45F8D1EFE72DE9F04183
S315080033C0044616461D4600F06DF9D4E9008728EA3A
S315080033D0060627EA0505C4E9006500F073F94046C4
S315080033E03946BDE8F08100BFEFF311834FF00002C4
S315080033F082F31188BFF36F8FBFF34F8FD0E90001B7
S3150800340083F31188704700BF2DE9F04F814683B0DA
S315080034101D46164600F11008FEF7CEFAD9F8003018
S31508003420D9F818401E43D9F80430C9F800601D437E
S31508003430A045C9F8045032D04FF0000BCDF804B0BF
S31508003440DA46AE460FE05BEA0C0C0AD0C90104D591
S3150800345001992943019147EA0A0AFEF723FFD9E9A8
S31508003460006EA04515D0D4E9005121F07F4711F030
S31508003470806F20463246A4684EF0007305EA060BB4
S3150800348007EA0E0CDFD0674508BF5D45DED0A045CC
S31508003490E9D1DDF804B02EEA0A0526EA0B06C9E9E1
S315080034A00065FEF793FA3046294603B0BDE8F08F6B
S315080034B02DE9F04F054685B0DDE90E9817461C46FE
S315080034C0DDE910BAFEF778FAD5E9006123463A46EF
S315080034D028460391FFF798FF03993E430C4306EAF3
S315080034E0090204EA0803434508BF4A452ED05BEAA9
S315080034F00A0308D1D5E90064FEF768FA3046214682
S3150800350005B0BDE8F08F4A4648F0A06305F108000B
S31508003510CDE900BAFEF70CFEFEF758FA48B94FF0A7
S31508003520E0234FF08052C3F8042DBFF34F8FBFF34B
S315080035306F8FFFF79BF88B0106460C4615D524F0CE
S315080035407F443046214605B0BDE8F08F2B6823EA54
S3150800355009032B606B6823EA08036B60FEF736FAEB
S315080035603046214605B0BDE8F08F00F09BF8D5E956
S31508003570006409EA060208EA0403434508BF4A4507
S3150800358005D126EA090224EA0803C5E9002300F062
S3150800359099F8D4E710B50446FEF70EFAA36843B1C6
S315080035A04FF00073A0690022FEF77CFEA368002B8B
S315080035B0F6D1FEF70BFA94F8283003B110BD204671
S315080035C0BDE8104000F01ABA90F82830012B06BF63
S315080035D008601846002070470A460023FFF714BF04
S315080035E038B504460D4600F05DF8236823EA05035E
S315080035F02360BDE8384000F065B800BF82B00023FC
S3150800360001934FF0000383F31188BFF36F8FBFF365
S315080036104F8F019B002BFCD002B07047084800680A
S31508003620006880F308884FF0000080F3148862B6BB
S3150800363061B6BFF34F8FBFF36F8F00DF00BF000087
S3150800364008ED00E0DFF80C00016841F47001016044
S315080036507047000088ED00E010B44FF08073074C07
S3150800366040F8043C21F001016FF0020340E90341F0
S3150800367040E909325DF8044B44387047FD350008C7
S31508003680064B19680868B0E8F04F80F30988BFF35D
S315080036906F8F4FF0000080F311887047FCE8012017
S315080036A0704700BF4FF0000383F31188BFF36F8F95
S315080036B0BFF34F8F024A136801331360704700BF88
S315080036C000000020034A1368013B13600BB983F31B
S315080036D01188704700000020EFF30980BFF36F8F51
S315080036E0144B1A681EF0100F08BF20ED108A20E947
S315080036F0F04F10602DE909004FF0000080F31188A3
S31508003700BFF34F8FBFF36F8FFEF76EFC4FF00000CD
S3150800371080F3118809BC19680868B0E8F04F1EF0F4
S31508003720100F08BFB0EC108A80F30988BFF36F8FBB
S3150800373070470000FCE8012008B54FF0000383F34A
S315080037401188BFF36F8FBFF34F8FFEF7E9FB28B1E0
S315080037504FF0E0234FF08052C3F8042D002383F383
S31508003760118808BDF8B53E4C064627680D4672B660
S31508003770BFF34F8FBFF36F8FFEF766FE00285DD04D
S315080037804FF0E0220621116161689269002A08BF9C
S315080037900A46BE4275F100003B464FF0000C3CBF9E
S315080037A03346AC464FF0E025581E00FB0122D5F8FB
S315080037B0041D4F0105D56168521A4FF00071C5F80E
S315080037C0041DA168914238BF521A4FF0E021002526
S315080037D04A618D610D6953EA0C0C45F001050D61CE
S315080037E004D0BFF34F8F30BFBFF36F8F62B6BFF3FE
S315080037F04F8FBFF36F8F72B6BFF34F8FBFF36F8FC5
S315080038004FF0E02106250D610E696568F60317D4A9
S315080038108A6905FB03F3981AD21AB0FBF5F000FB88
S31508003820055313444B6162684FF0E02300210724D7
S31508003830013A99611C615A61FEF7DAFA62B6F8BD77
S315080038408969A368294401398A1A934204D36A1EEE
S315080038504FF0E0235A61E6E79542F9D2F7E700BF51
S31508003860ECF0012030B44FF0E023084A084C094830
S3150800387000215325C2E9005419619961072158614D
S3150800388019615E2330BC9360704700BFECF00120DD
S31508003890400D03003F0D030030B54FF0E02483B020
S315080038A0D4F8203D43F47F03C4F8203DD4F8203DE6
S315080038B0002543F07F43C4F8203DC4F81C5DFFF79C
S315080038C0D1FF0E4B1D60FFF7BDFED4F8343F43F021
S315080038D04043C4F8343FFFF7A1FEFEF785FB019588
S315080038E04FF0000383F31188BFF36F8FBFF34F8F39
S315080038F0019B002BFCD0002003B030BD0000002047
S31508003900F8B5431E0A3341D810F0070300F108043E
S3150800391046D1FEF751F8364882682346002A4FD02A
S31508003920002C38DB0769A74235D30368304D03E01E
S315080039301A6822B11D4613465968A142F8D382680F
S315080039409A4228D02E681A682A60A1EB040CBCF1AA
S31508003950100F06F1080605D91919C1F804C01A513D
S3150800396029602146C2687F1A97424269076141F079
S3150800397000414FF0000402F101021C60596038BF93
S31508003980C7604261FEF722F83046F8BDFEF714F824
S31508003990174883689BB10026FEF718F83046F8BD2D
S315080039A0A3F10902A242F1D31030C41AFEF704F8B3
S315080039B00F48826823461AB1002BB3DCEBE71C4696
S315080039C00C4A51070C4918BF073221F0070118BFE6
S315080039D022F007020260164600258A1AC1E9005538
S315080039E0C0E9021245600261C6E90012E4E700BFB9
S315080039F0F8F00120080000200010002088B350F8D5
S31508003A00043C002B70B5044600DB70BD50F8082C4A
S31508003A10002AFAD123F0004340F8043CA0F1080537
S31508003A20FDF7CAFF194954F8040C0B6903440B61E6
S31508003A300B461A461B689D42FBD8566802EB060CD5
S31508003A4065450FD02E18B3421BD044F8083CAA424D
S31508003A5018BF15608B69BDE8704001338B61FDF7AF
S31508003A60B5BF704730441418A3425060F2D18C6831
S31508003A709C42EFD015465C681B680444C5E90034CF
S31508003A80E5E78E68B342F6D1DFE700BFF8F001201C
S31508003A90014B1869704700BFF8F00120014BD86840
S31508003AA0704700BFF8F00120014B1A69DA607047C9
S31508003AB0F8F00120704700BF38B518B1A1FB002304
S31508003AC0002553B901FB00F42046FFF719FF054608
S31508003AD018B122460021FCF733FB284638BD00BF43
S31508003AE02DE9F041DFF868800746FDF765FFD8F84D
S31508003AF0003043B3D8F808108B4224D000244FF086
S31508003B00FF362546D3E90032944238BF144696421A
S31508003B1028BF16468B4205F10105F3D1FDF756FF7E
S31508003B20C7E90146FD60FFF7BDFDD8E90401D8F8ED
S31508003B301820D8F80C303860C7E905123B61BDE893
S31508003B40F041FFF7BFBD00244FF0FF362546E5E7F5
S31508003B50F8F00120034B0022C3E90322C3E905223A
S31508003B609A607047F8F001205461736B31000000C9
S31508003B705461736B32000000546D722053766300F3
S30908003B80040000002F
S30908003B84AAAAAAAA87
S705080000DD15
